:040400005BEF49F075
:08040800046ED8CF05F0E0CF2F
:1004100006F00001E9CF0CF0EACF07F0E1CF08F0D9
:10042000E2CF09F0D9CF0AF0DACF0BF0F3CF12F018
:10043000F4CF13F0FACF14F0F5CF15F0F6CF16F095
:10044000F7CF17F0F8CF18F0FBCF19F000C00EF07F
:1004500001C00FF002C010F003C011F09DA034EFF6
:1004600002F09EB041EF04F0F0A63AEF02F0F0B0D7
:10047000A1EF08F09DAC40EF02F09EBCA4EF08F0A5
:100480009DAA46EF02F09EBACDEF06F00EC000F036
:100490000FC001F010C002F011C003F00CC0E9FF62
:1004A00007C0EAFF078E08C0E1FF09C0E2FF0AC0EB
:1004B000D9FF0BC0DAFF12C0F3FF13C0F4FF14C062
:1004C000FAFF15C0F5FF16C0F6FF17C0F7FF18C0FA
:1004D000F8FF19C0FBFF045006C0E0FF05C0D8FFBD
:1004E0001000F40FF66E040EF722000EF86E0900ED
:1004F000F5501200505F6F6E000000000882A000EF
:1005000000822000008A4CCCCD0000505F6F6666F0
:100510000000000982A00000822000008A4CCCCD9F
:10052000000044475F6F6E0000000A82A000008256
:100530002000008A4CCCCD000044475F6F66660007
:10054000000B82A00000822000008A4CCCCD00006D
:10055000535F6F6E000000000C82A000008220003C
:10056000008A4CCCCD0000535F6F66660000000D22
:1005700082A00000822000008A4CCCCD000053579E
:100580005F6F6E0000000E82A00000822000008AD3
:100590004CCCCD000053575F6F666600000F82A001
:1005A0000000822000008A4CCCCD000052475F6FD3
:1005B0006E0000001082A00000822000008A4CCC57
:1005C000CD000052475F6F666600001182A00000F8
:1005D000822000008A4CCCCD00004F470000000074
:1005E00000001282A00000822000008A4CCCCD00C6
:1005F0000052440000000000001382F000000000E0
:1006000000008A08888901054F44000000000000AE
:100610001483B80000000000008923D70A020642B4
:10062000420000000000001500000000845000009F
:10063000880FB82403070000000000000000160027
:10064000000000000000008A4CCCCD00000000003B
:1006500000000000001700000000000000008A4CAD
:10066000CCCD0000F76A780FF66E060EF722000E6A
:10067000F86E0900F5501200307000000000000014
:100680000885C800008548000087238000040430E6
:100690006E0000000000000985C8000085480000C9
:1006A00087238000040431700000000000000A85E8
:1006B000C8000085480000872380000404316E00D4
:1006C00000000000000B85C800008548000087235B
:1006D0008000040432700000000000000C85C80097
:1006E0000085480000872380000404326E0000006B
:1006F0000000000D85C800008548000087238000A9
:10070000040433700000000000000E85C80000855E
:10071000480000872380000404336E0000000000BE
:10072000000F85C80000854800008723800004046E
:10073000F76A440FF66E070EF722000EF86E0900F6
:10074000F55012003356334D000000001080333353
:100750003380733333745C4136335633000000000A
:1007600000058033333380733333745C4136355640
:100770005000000000000981100000813000007569
:1007800064C6C935564E00000000000881B0000064
:100790008190000075A7285A3556507061000000FE
:1007A0000381100000813000007564C6C935564EC3
:1007B00070610000000281B000008190000075A708
:1007C000285A313256500000000007823000008263
:1007D00050000076757E053132564E00000000064E
:1007E00082D0000082B0000076CAE22B3234564E2E
:1007F000000000000083D0000083B0000077C4A791
:10080000F135345650000000000183480000845C3C
:100810000000787CC8F1F76A2A0FF66E080EF722FE
:10082000000EF86E0900F55012008221126F73203D
:10083000EC25000000007381CD4E0000000073DC49
:1008400000DC000000007501614D8649570B7749B7
:10085000272E000000007381CD4E0000000073DCE5
:1008600000DC000000007501614DF76A7E0FF66E36
:10087000080EF722000EF86E0900F5501200616CA8
:100880006C00010E1C26D8B01D2AD8B41E2AD8B47C
:100890001F2A9E9046EF02F0696E694269617345B6
:1008A000726173650A00696E6942696173526561BC
:1008B000640A0000696E6942696173576970650A6C
:1008C0000000696E69426961734578706F73650AEB
:1008D0000000696E694269617349646C650A0000D1
:1008E000696E6942696173466173745265760A0084
:1008F000696E694F66667365740A0000696E6956B1
:100900002D5363616C6572730A00696E69373638FE
:10091000392D4F6666736574730A0000696E693716
:100920003638392D5363616C6572730A0000696E45
:100930006953657269616C4E756D730A0000535599
:1009400043434553530A00004F5554204F4620520D
:10095000414E47450A00535543434553530A00004F
:10096000494E56414C4944204348414E4E454C0A5D
:100970000000494E56414C4944204348414E4E45A3
:100980004C0A0000494E56414C4944204348414ED0
:100990004E454C0A0000494E56414C4944204348BC
:1009A000414E4E454C0A0000494E56414C494420A8
:1009B0004348414E4E454C0A0000494E56414C4971
:1009C00044204348414E4E454C0A00005355434392
:1009D0004553530A00004F5554204F462052414E74
:1009E00047450A00494E56414C4944204348414E30
:1009F0004E454C0A0000494E56414C49442043485C
:100A0000414E4E454C0A0000494E56414C49442047
:100A10004348414E4E454C0A0000494E56414C4910
:100A200044204348414E4E454C0A0000494E564131
:100A30004C4944204348414E4E454C0A0000494E23
:100A400056414C4944204348414E4E454C0A000013
:100A5000535543434553530A0000535543434553AD
:100A6000530A0000535543434553530A000053555E
:100A700043434553530A0000535543434553530AD8
:100A80000000535543434553530A00005355434315
:100A90004553530A0000494E56414C494420434FA8
:100AA0004D4D414E440A0000535543434553530AAC
:100AB0000000535543434553530A000053554343E5
:100AC0004553530A0000535543434553530A00000E
:100AD000535543434553530A00005355434345532D
:100AE000530A0000535543434553530A0000494EEF
:100AF00056414C494420504152414D455445520ABB
:100B00000000657261736500726561640000776959
:100B1000706500006578706F7365000069646C65CE
:100B200000006661737452657600756E6B6E6F7748
:100B30006E0A000046756E6374696F6E20446973B7
:100B400061626C65640A0000494E56414C4944207C
:100B5000504152414D455445520A000053554343BC
:100B60004553530A000046756E6374696F6E2044E6
:100B7000697361626C65640A0000494E56414C49D4
:100B800044204348414E4E454C0A000053554343D0
:100B90004553530A0000494E56414C4944205041A8
:100BA00052414D455445520A0000494E56414C4968
:100BB0004420504152414D455445520A0000494E8F
:100BC00056414C494420504152414D455445520AEA
:100BD0000000535543434553530A0000736C6F772D
:100BE0000000666173740000666173740000736CCA
:100BF0006F770000494E56414C4944204348414ECE
:100C00004E454C0A0000535543434553530A0000D8
:100C10004F5554204F462052414E47450A00494EF9
:100C200056414C4944204348414E4E454C0A000031
:100C3000494E56414C494420504152414D4554453E
:100C4000520A0000535543434553530A000053557D
:100C500043434553530A0000494E56414C494420F2
:100C6000504152414D455445520A0000494E5641AB
:100C70004C494420504152414D455445520A0000D0
:100C8000535543434553530A00005355434345537B
:100C9000530A0000535543434553530A000053552C
:100CA00043434553530A0000494E56414C494420A2
:100CB000504152414D455445520A00004255464666
:100CC0004552204F56455252554E0A005046532029
:100CD0004645452052657620323031393036303342
:100CE0002D30312C20636F70797269676874204AE7
:100CF00048550A002566206D696E7574657320730A
:100D0000696E63652072657365740A0053554343C9
:100D10004553530A0000494E56414C494420525510
:100D20004E20535441544500535543434553530AB1
:100D300000004F5554204F462052414E47450A006F
:100D4000494E56414C494420434F4D4D414E440A73
:100D5000000004009EAAFDD7ABCF22F0AECF01F079
:100D600022A202D0AB98AB88D5EF06F00201BF51AA
:100D7000C103F3CF01F0F4CF00F0C203F35000261B
:100D8000C051C103F3500020026E000112000400A4
:100D90009EA8FDD7AD6E9AEF08F093988A889EAA18
:100DA000CBD1920E946E8B80D4D701C0BAF20201DF
:100DB000BA51400A00010FE03E0A0DE0520AD8B4D1
:100DC00087D0260AD8B4ECD0070AD8B446D12D0A69
:100DD000D8B443D145D10201BA51400802E131975C
:100DE00001D03187C06B67C1BFF2C26B510EC16FBA
:100DF0000001BCDF02C0BDF201C0BCF2230E020143
:100E00000124E96E000E0220EA6EEF50230802E191
:100E1000000E01D0010EBE6FC06B67C1BFF2C26B86
:100E2000510EC16F0001A2DF02C0C0F201C0BFF2CB
:100E3000230E02010124E96E000E0220EA6EEF503B
:100E4000020802E1000E01D0010EBE1140E0C06BAD
:100E500067C1BFF2C26B510EC16F000187DF230E65
:100E600002010124E96E000E0220EA6E010EEF6E0F
:100E7000BB6BBB51030827E3C06B67C1BFF2C26BFA
:100E8000510EC16F000172DF02C0BDF201C0BCF2A1
:100E9000010E0201BC27000EBD23C06BBBC2BFF216
:100EA000C26B140EC16F000161DF01500201BC274B
:100EB0000250BD23230EBC25E96E000EBD21EA6E53
:100EC000EF6ABB2BD6D70101686B696B02012DD18C
:100ED0000201C06B67C1BFF2C26B510EC16F00014E
:100EE00045DF02C0BDF201C0BCF2230E02010124A5
:100EF000E96E000E0220EA6EEF2C51D0010168511C
:100F0000020833E30201C06B67C1BFF2C26B510E2E
:100F1000C16F00012BDF02C0BDF201C0BCF2010EA7
:100F20000201BC27000EBD23C06B68C1BFF2C26BBB
:100F3000140EC16F00011ADF01500201BC270250DC
:100F4000BD23010169510201BC25016E000EBD21C6
:100F5000036E0150230FE96E000E0320EA6EEF6A64
:100F6000010E01016827696B19D00201C06B67C1CE
:100F7000BFF2C26B510EC16F0001F8DE230E0201F9
:100F80000124E96E000E0220EA6E020EEF6E010EE1
:100F9000010167276751030801E2676B0201C5D0B1
:100FA0000201C06B67C1BFF2C26B510EC16F00017D
:100FB000DDDE02C0BDF201C0BCF2230E020101243D
:100FC000E96E000E0220EA6EEF2C46D0C06B67C1BE
:100FD000BFF2C26B510EC16F0001C8DE02C0BDF28C
:100FE00001C0BCF2010E0201BC27000EBD23C06B84
:100FF00068C1BFF2C26B140EC16F0001B7DE0150B1
:101000000201BC270250BD23010169510201BC2528
:10101000016E000EBD21036E0150230FE96E000E1C
:101020000320EA6EEF6AC06B67C1BFF2C26B510E5C
:10103000C16F00019BDE230E02010124E96E000E48
:101040000220EA6E230EEF6E010E01016727675141
:10105000030801E2676B020168D0020166D000015B
:101060000201C06B67C1BFF2C26B510EC16F0001BC
:101070007DDE02C0BDF201C0BCF2230E02010124DC
:10108000E96E000E0220EA6EEF2C4FD0C06B67C1F4
:10109000BFF2C26B510EC16F000168DE02C0BDF22B
:1010A00001C0BCF2010E0201BC27000EBD23C06BC3
:1010B00068C1BFF2C26B140EC16F000157DE015050
:1010C0000201BC270250BD23010169510201BC2568
:1010D000016E000EBD21036E0150230FE96E000E5C
:1010E0000320EA6EBAC2EFFF01016951130803E35E
:1010F000010E692719D00201C06B67C1BFF2C26B34
:10110000510EC16F000132DE230E02010124E96E8F
:10111000000E0220EA6E020EEF6E010E010167273B
:101120006751030801E2676B020131A703D0BA518E
:1011300000012DD6000133D693988A989E9A46EFE7
:1011400002F0F09046EF02F09E9C46EF02F050460F
:1011500053204645452052657620323031393036AD
:1011600030332D30312C20636F7079726967687469
:10117000204A48550A00020EEA6E6B0EE96EEF50E7
:1011800011E00A0E016EBF0E006E0400002EFDD7A6
:10119000012EF9D75E0E006E002EFED700D004009F
:1011A000EF2EEFD71200000E956E8C90956E8C820C
:1011B000920E946E8B84000E956E8C84956E8C9638
:1011C000956E8C88956E8C9A956E8C9C956E8C8E97
:1011D000F00E986E8F80010E02016B6F0001CBDF65
:1011E0001200F00E986E8F90C95070C2C9FFC730C0
:1011F000FEE3C9CF01F0C9506FC2C9FFC730FEE39B
:10120000C9CF00F0F00E986E8F801200C69A400E83
:10121000C76E220EC66E6CC270F26BC26FF2E1DF57
:1012200004001A0E006E002EFED7C69A400EC76E3E
:10123000220EC66E6CC270F26BC26FF2D2DF040077
:101240001A0E006E002EFED7C69A400EC76E220EF2
:10125000C66E6CC270F26BC26FF2C3DF015001C088
:101260006EF200C06DF202016DC201F06EC202F0BA
:10127000000112008E0E006EABC201F0AAC202F095
:10128000036A015209E102C001F0026A080E005E21
:10129000015202E1006A08D0D89001BE04D00236A3
:1012A00001360006F9D7019E12000201A651D8B4FA
:1012B00071D0006EAA51D8B46DD0002604E3810E1F
:1012C000002668E204D07F0E005E64E363E0A7C2FC
:1012D000AEF2AB51AE1BA78FAB8FA951AD03F4CFCC
:1012E000B0F2A851AC03F4CF03F0F3CFAFF2AD03EB
:1012F000F350B027F450AF23000E0322A951AC03E2
:10130000F350B027F450AF23000E026A03220222EA
:10131000A751AD03F350AF27F4500322000E022271
:10132000A751AC03F3500326F4500222000E016AC9
:101330000122A951AB03F350AF27F4500322000E52
:1013400002220122A851AB03F3500326F4500222DB
:10135000000E0122A751AB03F3500226F4500122E4
:10136000002A01BE05D0AF3703360236013600062B
:10137000000EAFAF0AD0032A02220122015005E17C
:10138000025003E1035001E1002AAEBF018EAEAF6F
:10139000019E04D0006A016A026A036A0001120019
:1013A000800ED8A202D00201AF1B0201B46BB56B54
:1013B000ABC2B3F2AF51B31BAA51D8B4DFD0B26FF6
:1013C000006EAE51D8B4E3D0B25FD8B483D03EE360
:1013D000AFC2B8F2B88FB0C2B7F2B1C2B6F2B56B55
:1013E000D890B833B733B633B533B22FF8D7B3AFDD
:1013F00003D0B481E0D0B491B291B489020EEA6E08
:10140000AD0EE96EEBD0B499B3BF0AD0B2A113D040
:10141000B833B733B633B533002AD8B4C7D00BD0FE
:10142000B8BF0CD0D890B537B637B737B837000645
:10143000D8B4BCD0F5D7B48D6DD0B49DABC2B3F2E7
:10144000ABAF02D0B88FABD0B89FA9D0AEC2B2F2CA
:10145000AEC200F0AA51B25FABC2B8F2B88FACC254
:10146000B7F2ADC2B6F2B56BD890B833B733B63376
:10147000B533B22FF8D7B3AF03D0B4839CD0B493B5
:10148000B291B48B020EEA6EB10EE96EA7D0B49B96
:10149000B3BF0AD0B2A113D0B833B733B633B53324
:1014A000002AD8B483D00BD0B8BF0CD0D890B537B1
:1014B000B637B737B8370006D8B478D0F5D7B48F79
:1014C00029D0B49FAFC2B3F2AFAF02D0B88F67D00C
:1014D000B89F65D0AFC2B8F2B88FB0C2B7F2B1C290
:1014E000B6F2B3AF04D0B89FB48565D0B495B56BF0
:1014F000B291020EEA6EAD0EE96E70D0B3BF1CD091
:10150000ABC2B3F2B2A106D0B833B733B633B533FA
:10151000002A4CE0B5AF0BD0B62B09E1B72B07E1A1
:10152000B82B05E1B833B733B633002A3FE0B4BD7A
:1015300084D7B4BFC6D71CD0800EB81BB8AF04D0B8
:101540003AD0AFC2B3F20AD0ABC2B3F2B85306E19D
:10155000B75304E1B65302E1006A21D0B8BF08D006
:10156000D890B537B637B737B837002EF7D71ED073
:10157000B3AF02D0B88F13D0B89F11D0AEC200F075
:10158000AFC2B8F2B0C2B7F2B1C2B6F208D0AAC2C6
:1015900000F0ABC2B8F2ACC2B7F2ADC2B6F2B8C29C
:1015A00001F0B7C202F0B6C203F034D0006A016A9B
:1015B000026A036A2FD0B56BB61FB71FB81FB51FDD
:1015C000B52B05E1B62B03E1B72B01E1B82BB4B184
:1015D00012D7B4B354D7B4B589D7B3D7EF50B62721
:1015E00005E3B72B03E1B82BD8B4B281ED52EF502D
:1015F000B72703E3B82BD8B4B281ED52EF50EFBE5A
:1016000001D0800AB827D8B0B281B4B9FCD6B4BB37
:101610003ED774D700011200D8905BC25CF2020181
:101620005B6B5C370001BFDD04001A0E006E002EFC
:10163000FED702015C5180096C6F700E6C135B5118
:101640000409656F6CC266F266C26CF265C26BF229
:101650000001DCDD02C0ABF201C0AAF20BDE03C068
:101660006AF202C069F201C068F200C067F26AC2A1
:10167000A9F269C2A8F268C2A7F267C2A6F260C264
:10168000ADF25FC2ACF25EC2ABF25DC2AAF20DDE99
:1016900003C06AF202C069F201C068F200C067F2DA
:1016A000D8826AC2ADF269C2ACF268C2ABF267C25C
:1016B000AAF264C2B1F263C2B0F262C2AFF261C216
:1016C000AEF26EDE03C06AF202C069F201C068F2D7
:1016D00000C067F267C200F068C201F069C202F0A0
:1016E0006AC203F012005FDD640E02016B6F00013D
:1016F00042DDF00E0201416F040E406F426B425119
:10170000040810E35C6B5B6B606B5F6B5E6B7F0E62
:101710005D6F646B636B626B616B00017DDF020167
:10172000422BEDD700011200920E946E8B800201C5
:101730003D6B3D51030852E31B6AF2BE1B8EF29EC5
:10174000C06B3DC2BFF2C26B510EC16F0001B6EC5F
:1017500006F01BBEF28E230E02010124E96E000E7C
:101760000220EA6EEF6A3E6B3E51030835E31B6AC6
:10177000F2BE1B8EF29EC06B3DC2BFF2C26B510E19
:10178000C16F0001B6EC06F01BBEF28E02C040F243
:1017900001C03FF2010E02013F27000E40231B6AE9
:1017A000F2BE1B8EF29EC06B3EC2BFF2C26B140E25
:1017B000C16F0001B6EC06F01BBEF28E01500201B3
:1017C0003F2702504023230E3F25E96E000E4021A3
:1017D000EA6EEF6A3E2BC8D73D2BABD70101676B92
:1017E000686B696B6A6B9D8A000123EF4AF0010EFA
:1017F0000F01236F0F0E246FEF0E256FC196C19856
:10180000C18AC050C00B2E09C06EC08EC2800001BC
:1018100025EF4AF00900F55212E0F6CF5BF2F7CF60
:101820005CF2F8CF5DF2F55004009EA8FDD7AD6ED6
:101830005BC2F6FF5CC2F7FF5DC2F8FFEBD7120098
:1018400071C201F070C200F00066012A0900F5CFF4
:10185000EEFF002EFBD7012EF9D7F86A1200F2CF67
:1018600049F2F29E030E636E62687F9C7F9E7F80CA
:101870006150020149BFF28EFF08D8A47CD3980EB4
:10188000F66E080EF76E000EF86E0001C3DF02015F
:10189000406B010E3F6FFE0E3E6F3D6B416B415141
:1018A0007F0834E341513D25006E000E3E21016E5C
:1018B000000E3F21026E000E4021036E02C0F8FFB1
:1018C00001C0F7FF00C0F6FF020EEA6E490EE96E96
:1018D000716B010E706F0001B3DFF250006EF29E6B
:1018E000636A41C262FF49C261FF7F9C7F9E7F8421
:1018F0000F01550E7E6EAA0E7E6E7F827FB2FED7DE
:101900007F940050F2120201412BC9D7A60EF66E49
:10191000080EF76E000EF86E00017CDF0201406BCE
:10192000010E3F6F3E69800E3D6F416B41517F0854
:101930003BE3800E4125496F4A6BD8B04A2B415199
:101940003D25006E000E3E21016E000E3F21026E0D
:10195000000E4021036E02C0F8FF01C0F7FF00C077
:10196000F6FF020EEA6E4B0EE96E716B010E706FA0
:10197000000166DFF250006EF29E4AC263FF49C268
:1019800062FF4BC261FF7F9C7F9E7F840F01550EDB
:101990007E6EAA0E7E6E7F827FB2FED77F9400504D
:1019A000F2120201412BC2D7B40EF66E080EF76E8A
:1019B000000EF86E00012EDF0201406B010E3F6F3A
:1019C000FE0E3E6F800E3D6F416B41517F0839E343
:1019D0004151496F010E4A6F41513D25006E000E85
:1019E0003E21016E000E3F21026E000E4021036E6B
:1019F00002C0F8FF01C0F7FF00C0F6FF020EEA6E5A
:101A00004B0EE96E716B010E706F000119DFF25021
:101A1000006EF29E4AC263FF49C262FF4BC261FF81
:101A20007F9C7F9E7F840F01550E7E6EAA0E7E6E78
:101A30007F827FB2FED77F940050F2120201412BC9
:101A4000C4D7C20EF66E080EF76E000EF86E0001D7
:101A5000E1DE0201406B010E3F6F3E693D6B416B61
:101A600041517F083CE3800E4125496F010E4A6FCA
:101A7000D8B04A2B41513D25006E000E3E21016E2B
:101A8000000E3F21026E000E4021036E02C0F8FFDF
:101A900001C0F7FF00C0F6FF020EEA6E4B0EE96EC2
:101AA000716B010E706F0001CBDEF250006EF29E82
:101AB0004AC263FF49C262FF4BC261FF7F9C7F9EA7
:101AC0007F840F01550E7E6EAA0E7E6E7F827FB2DE
:101AD000FED77F940050F2120201412BC1D7D20EE3
:101AE000F66E080EF76E000EF86E000193DE02012E
:101AF000406B010E3F6FFD0E3E6F800E3D6F416BE0
:101B000041517F0839E34151496F020E4A6F4151FB
:101B10003D25006E000E3E21016E000E3F21026E3B
:101B2000000E4021036E02C0F8FF01C0F7FF00C0A5
:101B3000F6FF020EEA6E4B0EE96E716B010E706FCE
:101B400000017EDEF250006EF29E4AC263FF49C27F
:101B500062FF4BC261FF7F9C7F9E7F840F01550E09
:101B60007E6EAA0E7E6E7F827FB2FED77F9400507B
:101B7000F2120201412BC4D7E00EF66E080EF76E8A
:101B8000000EF86E000146DE0201406B010E3F6F51
:101B9000FD0E3E6F3D6B416B41517F083CE3800E73
:101BA0004125496F020E4A6FD8B04A2B41513D255D
:101BB000006E000E3E21016E000E3F21026E000EEF
:101BC0004021036E02C0F8FF01C0F7FF00C0F6FF1E
:101BD000020EEA6E4B0EE96E716B010E706F000122
:101BE0002FDEF250006EF29E4AC263FF49C262FFCE
:101BF0004BC261FF7F9C7F9E7F840F01550E7E6EDE
:101C0000AA0E7E6E7F827FB2FED77F940050F212C2
:101C10000201412BC1D7F00EF66E080EF76E000ED2
:101C2000F86E0001F7DD0201416B41513F081DE3F1
:101C30004151496F030E4A6FF250006EF29E4AC244
:101C400063FF49C262FF616A7F9C7F9E7F840F01B0
:101C5000550E7E6EAA0E7E6E7F827FB2FED77F9477
:101C60000050F2120201412BE0D7FC0EF66E080E76
:101C7000F76E000EF86E0001CDDD020E0201476F17
:101C8000420E466F416B4151090856E34151150D13
:101C9000F3504A6B496F110E4925016E000E4A211F
:101CA000036E0150000198EC03F00900F5CF01F03C
:101CB0000900F5CF02F00900F5CF03F003C045F2AB
:101CC00002C044F201C043F2E8CF42F20201486B85
:101CD000485103082FE34151040DF350400F496F61
:101CE000030E4A6FD8B04A2B48514927000E4A23A9
:101CF00048514625E96E000E4721EA6EEFCF4BF2C0
:101D0000F250006EF29E4AC263FF49C262FF4BC2AC
:101D100061FF7F9C7F9E7F840F01550E7E6EAA0E11
:101D20007E6E7F827FB2FED77F940050F212020156
:101D3000482BCED7412BA7D70A0EF66E090EF76EA9
:101D4000000EF86E000166DD0201416B415107088B
:101D500052E34151080DF3504A6B496F4AC203F0F8
:101D6000495100010BEC04F00900F5CF01F0090026
:101D7000F5CF02F00900F5CF03F003C045F202C031
:101D800044F201C043F2E8CF42F20201486B4851ED
:101D900003082FE34151040DF350680F496F030E00
:101DA0004A6FD8B04A2B48514927000E4A23485160
:101DB0004625E96E000E4721EA6EEFCF4BF2F25056
:101DC000006EF29E4AC263FF49C262FF4BC261FFCE
:101DD0007F9C7F9E7F840F01550E7E6EAA0E7E6EC5
:101DE0007F827FB2FED77F940050F2120201482B0F
:101DF000CED7412BABD71C0EF66E090EF76E000E38
:101E0000F86E000107DD0201416B4151070856E3FE
:101E10004151080DF3504A6B496F040E4925016E7C
:101E2000000E4A21036E015000010BEC04F0090082
:101E3000F5CF01F00900F5CF02F00900F5CF03F06E
:101E400003C045F202C044F201C043F2E8CF42F2BF
:101E50000201486B485103082FE34151040DF35030
:101E6000880F496F030E4A6FD8B04A2B4851492753
:101E7000000E4A2348514625E96E000E4721EA6EBE
:101E8000EFCF4BF2F250006EF29E4AC263FF49C29E
:101E900062FF4BC261FF7F9C7F9E7F840F01550EC6
:101EA0007E6EAA0E7E6E7F827FB2FED77F94005038
:101EB000F2120201482BCED7412BA7D72E0EF66E79
:101EC000090EF76E000EF86E0001A4DCF250006EF1
:101ED000F29E030E636EAC0E626E616A7F9C7F9E03
:101EE0007F840F01550E7E6EAA0E7E6E7F827FB2BA
:101EF000FED77F940050F212F2CF00F0F29E030E54
:101F0000636EB00E626E616A7F9C7F9E7F84550E09
:101F10007E6EAA0E7E6E7F827FB2FED77F940050C7
:101F2000F212F2CF00F0F29E030E636EC40E626EE8
:101F3000616A7F9C7F9E7F84550E7E6EAA0E7E6EA8
:101F40007F827FB2FED77F940050F212F2CF00F072
:101F5000F29E030E636E6268616A7F9C7F9E7F843F
:101F6000550E7E6EAA0E7E6E7F827FB2FED77F9464
:101F70000050F2120201000128EF4AF071C203F092
:101F8000020170C2E9FF03C0EAFFEFCF74F273C22F
:101F900003F072C2E9FF03C0EAFFEF50745D17E17E
:101FA00071C203F070C2E9FF03C0EAFFEF5203E120
:101FB000000E016E21D071C203F07051702BD8B4A5
:101FC000712B722BD8B4732B0001D8D7020171C2C8
:101FD00003F070C2E9FF03C0EAFFEFCF74F273C2EF
:101FE00003F072C2E9FF03C0EAFFEF50745D02E242
:101FF000FF0E01D0010E016E000112000201636BA1
:10200000646B5F51006E6051016E6151026E02C0DF
:10201000F8FF01C0F7FF00C0F6FF020EEA6E6D0E7A
:10202000E96E716B010E706F00010ADC02016D53E5
:1020300049E0646B6251645D2CE2036A6451650F90
:10204000016E020E032201506D6F03C06EF26451E7
:102050005F25006E000E6021016E000E6121026E90
:1020600002C0F8FF01C0F7FF00C0F6FF020EEA6EE3
:102070006F0EE96E716B010E706F000120EC0CF0B9
:102080006EC2EAFF6DC2E9FF6FC2EFFF0201642B6F
:10209000D1D7020E716F650E706F5EC273F25DC2B2
:1020A00072F200016BDF015205E1020163C201F02F
:1020B0000BD000010201632B62515F27000E6023E9
:1020C00061239FD7FF0E016E0001120002015F6BBA
:1020D0005F510F083DE31B6AF2BE1B8EF29EC06B80
:1020E0005FC2BFF2C26B170EC16F0001B6EC06F003
:1020F0001BBEF28E02C071F201C070F202C073F218
:1021000001C072F2020EEA6E600EE96E02C0F7FFC5
:1021100002010150000171EC02F00A000900F550C3
:10212000EE6E0009FBE1020E0201716F600E706F2E
:102130005EC273F25DC272F2000120DF015205E15E
:1021400002015FC201F027D0000102015F2BC0D75E
:10215000020EEA6E680EE96E000E000135EC04F026
:102160000A000900F550EE6E0009FBE1020E0201C3
:10217000716F680E706F5EC273F25DC272F2000121
:10218000FDDE015205E1FE0E016E020104D00001E8
:10219000FF0E016E02010001120002019F51D8B42E
:1021A000A5D0AB6FA351D8B4A1D0AB5F05E37F0E30
:1021B000AB27D8B09BD006D0810EAB5FD8A096D00D
:1021C000D8B494D0ABC200F0016A026A036AAA6B69
:1021D000A0C2A9F2A98FA1C2A8F2A2C2A7F2190EA9
:1021E000AB6FA651A75F0DE2010EA85F0AE2A95FDF
:1021F00008E2AA5F06E2AA2BA92BA82BA651A727C3
:1022000028D0A551A85F12E2010EA95F0FE2AA5FD4
:102210000DE2AA2BA92BA551A827A651A72719E3A0
:10222000A82B17E1A92B15E1AA2B13D0A4518009E3
:10223000A95F0EE2010EAA5F0BE2AA2BA45180094E
:10224000A927A551A827E9E3A92BE7E1AA2BE5D700
:102250000380AB2F01D00BD0D890A737A837A93770
:10226000AA37D890033602360136AC37BAD7ACA1BC
:1022700006D0D890013202320332AC3302D00006CD
:1022800035E0ACBF1ED0D890A737A837A937AA37FA
:10229000A651A75F07E2010EA85F04E2A95F02E270
:1022A000AA5F1AE3A551A85F05E2010EA95F02E249
:1022B000AA5F12E3A4518009A95F03E2010EAA5F9D
:1022C0000BE3032A09E1022A07E1012A05E1002ABA
:1022D0000DE0013202320332A0C2ABF2A451AB1BBB
:1022E000ABAF02D0018E06D0019E04D0006A016A15
:1022F000026A036A000112000201556B546B536BB2
:102300007F0E526F596B586B576B566B5A815A93AD
:102310005A955C6B4E514F1105E1006A016A026AE1
:10232000036A18D15C515C2B4E25E96E000E4F21DB
:10233000EA6EEFCF5BF25B53D8B4CAD05AA10FD08C
:102340005B5120080CE05A915B512B0803E15A9332
:10235000B3D005D05B512D0802E15A83ADD05AB1FC
:1023600007D05B512E0804E15AB502D05A85A4D09B
:102370005AB19FD05B512F08D8B09BD05B51390820
:10238000D8A097D0300E5B5F5AA556D055C2A9F29F
:1023900054C2A8F253C2A7F252C2A6F2AD6BAC6B04
:1023A000200EAB6F820EAA6F000155EC09F003C03E
:1023B00055F202C054F201C053F200C052F20201C1
:1023C000AB6B5BC2AAF200013AEC09F003C060F209
:1023D00002C05FF201C05EF200C05DF203C0A2F273
:1023E00002C0A1F201C0A0F200C09FF255C2A6F245
:1023F00054C2A5F253C2A4F252C2A3F2CEDED892C6
:1024000059C2ADF258C2ACF257C2ABF256C2AAF2F0
:1024100003C0B1F202C0B0F201C0AFF200C0AEF230
:10242000D0EC09F003C059F202C058F201C057F2D3
:1024300000C056F23CD00201A96BA86B200EA76F1A
:10244000820EA66F59C2ADF258C2ACF257C2ABF2BF
:1024500056C2AAF2000155EC09F003C060F202C0B6
:102460005FF201C05EF200C05DF20201AB6B5BC2C5
:10247000AAF200013AEC09F0D89260C2ADF25FC254
:10248000ACF25EC2ABF25DC2AAF203C0B1F202C00E
:10249000B0F201C0AFF200C0AEF2D0EC09F003C060
:1024A00059F202C058F201C057F200C056F205D0EE
:1024B00002015AB101D00CD0000102015C515C2B29
:1024C0004E25E96E000E4F21EA6EEFCF5BF233D757
:1024D0005AA31AD0A96BA86B800EA76F7F0EA66FA8
:1024E00059C2ADF258C2ACF257C2ABF256C2AAF210
:1024F000000155EC09F003C059F202C058F201C0C6
:1025000057F200C056F20201505151111BE05C53CA
:102510000EE05C0751C203F050C2E9FF03C0EAFFBE
:102520005C514E25EF6E000E4F21EC6E0BD051C268
:1025300003F050C2E9FF03C0EAFF4FC2ECFFED52C7
:102540004EC2EFFF56C200F057C201F058C202F06F
:1025500059C203F000011200A7C2AEF20201AB5152
:10256000AE1BAEAF05D0D894D890A7BFD8802FD0DF
:10257000A7C2AEF2AAC2AFF2A651AF5F06E0AEAFFD
:1025800026D0D850010AD86E22D0ABC2AFF2A751E4
:10259000AF5F06E0AEAF1BD0D850010AD86E17D09F
:1025A000ACC2AFF2A851AF5F06E0AEAF10D0D850CA
:1025B000010AD86E0CD0ADC2AFF2A951AF5F06E0F0
:1025C000AEAF05D0D850010AD86E01D0D890000126
:1025D00012008E0E006E0201A651005EA7C202F02C
:1025E000A8C201F0028E005209E0D890025202E126
:1025F000015204E002320132002EF7D7A7AF05D016
:10260000011E021E012AD8B4022A00011200000E87
:10261000956E8C94036AC9506DC2C9FFC730FEE342
:10262000C9CF02F0C9506CC2C9FFC730FEE3C9CFA1
:1026300001F0C9506BC2C9FFC730FEE3C9CF00F03B
:10264000000E956E8C849EEF13F0000E956E8C98A4
:10265000036AC9506DC2C9FFC730FEE3C9CF02F09B
:10266000C9506CC2C9FFC730FEE3C9CF01F0C950E1
:102670006BC2C9FFC730FEE3C9CF00F0000E956EF4
:102680008C889EEF13F0000E956E8C9E036AC950E5
:102690006DC2C9FFC730FEE3C9CF02F0C9506CC29A
:1026A000C9FFC730FEE3C9CF01F0C9506BC2C9FFF3
:1026B000C730FEE3C9CF00F0000E956E8C8E9EEF02
:1026C00013F002016A6B63C269F265C268F264C208
:1026D00067F26651000A000105E0010A12E0030AF0
:1026E0001FE02CD0C69A000EC76E200EC66E6AC2BE
:1026F0006EF269C26DF268C26CF267C26BF287D784
:102700001DD0C69A000EC76E200EC66E6AC26EF24B
:1027100069C26DF268C26CF267C26BF296D70ED0D6
:10272000C69A000EC76E200EC66E6AC26EF269C2ED
:102730006DF268C26CF267C26BF2A5D71200020E8E
:102740000201605F0CE3020EEA6E600EE96EEF506C
:1027500006E003D000D000D00400EF2EFBD700012C
:102760001200D3EC08F0C00E02015F6F5E515F27CC
:102770005FC263F25CC265F25BC264F25DC266F284
:1027800000019FDF0400630E0201606F0001D7DFCC
:1027900002015D51000A000105E0010A16E0030A8A
:1027A00027E038D00400630E0201606F0001C7DF2C
:1027B000000E956E8C960400630E0201606F00019E
:1027C000BEDF000E956E8C8625D00400630E0201DC
:1027D000606F0001B4DF000E956E8C9A0400630EEA
:1027E0000201606F0001ABDF000E956E8C8A12D083
:1027F0000400630E0201606F0001A1DF000E956E00
:102800008C9C0400630E0201606F000198DF000ED3
:10281000956E8C8C1200010E02014D6F4D510A080D
:1028200040E31B6AF2BE1B8EF29EC06B4DC2BFF22C
:10283000C26B170EC16F0001B6EC06F01BBEF28E24
:1028400002C052F201C051F2080E02010124016ED1
:10285000000E0220036E015003C0F7FF000171EC6F
:1028600002F0E8CF4EF202014C51100DF3504D250D
:10287000040DF350036A6F0FE96E010E0320EA6E38
:10288000EF6AEC6AEC6AEC6A7F0E5C6FFC0E5B6FC1
:102890004CC25DF24EC25EF2000163DF02014D2BBD
:1028A000BDD70C0E4D6F4D510F0840E31B6AF2BEB1
:1028B0001B8EF29EC06B4DC2BFF2C26B170EC16F72
:1028C0000001B6EC06F01BBEF28E02C052F201C04F
:1028D00051F2080E02010124016E000E0220036E67
:1028E000015003C0F7FF000171EC02F0E8CF4FF296
:1028F00002014C51100DF3504D25040DF350036AA5
:102900006F0FE96E010E0320EA6EEF6AEC6AEC6A63
:10291000EC6A7F0E5C6FFC0E5B6F4CC25DF24FC2C7
:102920005EF200011EDF02014D2BBDD7130E506F6A
:102930004C51100DF3500B0F040DF350036A6F0F41
:10294000E96E010E0320EA6EEF6AEC6AEC6AEC6A4B
:102950007F0E5C6FFC0E5B6F4CC25DF250C25EF28C
:102960000001FFDE12001B6AF2BE1B8EF29E020106
:10297000C06B6AC1BFF2C26B510EC16F0001B6ECF1
:1029800006F01BBEF28E02C04DF201C04CF2010EE9
:1029900002014C27000E4D23280E4C25016E000E1F
:1029A0004D21036E0150230F016E000E032201C062
:1029B0004CF203C04DF203C05EF201C05DF2010EA5
:1029C000616FFB0E606F9A0E5F6F080E626F000101
:1029D000FEEC0FF001C041F2020141510108D8A004
:1029E000E8D11B6AF2BE1B8EF29EC06B6AC1BFF2B9
:1029F000C26B510EC16F0001B6EC06F01BBEF28E29
:102A000002C04DF201C04CF2010E02014C27000E33
:102A10004D23140E4C25016E000E4D21036E015006
:102A2000230F016E000E032201C04CF203C04DF2D1
:102A300003C05EF201C05DF2000166EC10F001C05F
:102A400042F2020142510F08D8A097D11B6AF2BE90
:102A50001B8EF29EC06B42C2BFF2C26B170EC16FDB
:102A60000001B6EC06F01BBEF28E02C04DF201C0B2
:102A70004CF2080E02010124016E000E0220036ECA
:102A8000015003C0F7FF000171EC02F0016EE8CFC6
:102A900043F21B6AF2BE1B8EF29E0201C06B6AC13A
:102AA000BFF2C26B510EC16F0001B6EC06F01BBE47
:102AB000F28E02C04DF201C04CF2010E02014C2711
:102AC000000E4D233C0E4C25016E000E4D21036E71
:102AD0000150230F016E000E032201C04CF203C00F
:102AE0004DF203C04FF201C04EF2516B506B00012A
:102AF00003DC03C047F202C046F201C045F200C049
:102B000044F21B6AF2BE1B8EF29E0201C06B42C2EF
:102B1000BFF2C26B170EC16F0001B6EC06F01BBE10
:102B2000F28E02C04DF201C04CF20D0E02010124E2
:102B3000016E000E0220036E015003C0F7FF00017A
:102B400071EC02F0006E0900F5CF01F00900F5CF3D
:102B500002F00900F5CF03F047C2A9F246C2A8F27D
:102B600045C2A7F244C2A6F203C0ADF202C0ACF265
:102B700001C0ABF2E8CFAAF2EFDC02E2D8A4F3D0B6
:102B80001B6AF2BE1B8EF29E0201C06B42C2BFF2F4
:102B9000C26B170EC16F0001B6EC06F01BBEF28EC1
:102BA00002C04DF201C04CF2090E02010124016E77
:102BB000000E0220036E015003C0F7FF000171EC0C
:102BC00002F0006E0900F5CF01F00900F5CF02F028
:102BD0000900F5CF03F003C0A9F202C0A8F201C0BA
:102BE000A7F2E8CFA6F247C2ADF246C2ACF245C2A8
:102BF000ABF244C2AAF2B0DC02E2D8A4B4D0020123
:102C00004151100DF3504225040DF350036A6F0F2C
:102C1000E96E010E0320EA6E44C2EFFF45C2ECFFED
:102C200046C2ECFF47C2ECFF1B6AF2BE1B8EF29E4F
:102C3000C06B42C2BFF2C26B170EC16F0001B6EC8F
:102C400006F01BBEF28E02C04DF201C04CF2110E16
:102C500002010124016E000E0220036E015003C028
:102C6000F7FF000171EC02F00900F5CF01F0090057
:102C7000F5CF02F00900F5CF03F003C04BF202C01C
:102C80004AF201C049F2E8CF48F247C2A9F246C26F
:102C9000A8F245C2A7F244C2A6F24BC2ADF24AC2A4
:102CA000ACF249C2ABF248C2AAF255EC09F003C03B
:102CB00047F202C046F201C045F200C044F20201F0
:102CC000A96BFE0EA86F7F0EA76F8D0EA66F47C271
:102CD000ADF246C2ACF245C2ABF244C2AAF2000168
:102CE0003BDC04E3020140693F692AD047C2A9F2F4
:102CF00046C2A8F245C2A7F244C2A6F20201AD6BD9
:102D0000FE0EAC6FAB698D0EAA6F000125DC05E3EA
:102D10000201406B3F6B14D0000147C2A9F246C2CA
:102D2000A8F245C2A7F244C2A6F253DC02C003F0E7
:102D30000150800E032601C03FF2020103C040F2A1
:102D400040C25CF23FC25BF241C25DF243C25EF23E
:102D5000000107DD3E0EF66E090EF76E000EF86EEE
:102D60000AEC0CF008D0480EF66E090EF76E000E55
:102D7000F86E0AEC0CF01BD002014251FE080EE185
:102D800041C24CF2000147DD560EF66E090EF76E99
:102D9000000EF86E0AEC0CF00AD00201600EF66E1E
:102DA000090EF76E000EF86E00010AEC0CF00AD066
:102DB0000201720EF66E090EF76E000EF86E00013B
:102DC0000AEC0CF02EEF49F002016851B608686F6A
:102DD000036A69C26CF2698FD89069336A336B33C6
:102DE0000332023201320032682FF6D76CAF0BD0BB
:102DF000001E011E021E031E002AD8B4012AD8B4E8
:102E0000022AD8B4032A00017CEF17F0D8B204D00C
:102E1000020EEA6E700EE96E006A016A026A036AC7
:102E20000201706B716B726B736B6F516E116D1170
:102E30006C112CE0200E746FD890683769376A37B0
:102E40006B3770377137723773376F51735D08E1C5
:102E50006E51725D05E16D51715D02E16C51705D05
:102E60000FE36C51705F6D51D8A06D3D715F6E5175
:102E7000D8A06E3D725F6F51D8A06F3D735FD88050
:102E80000036013602360336742FD6D770C2EFFFF4
:102E900071C2ECFF72C2ECFF73C2ECFF00011200C2
:102EA000E9500201606F5F51626F1CE05EC2A9F2DF
:102EB0005DC2A8F25CC2A7F25BC2A6F2AD6BAC6BBE
:102EC000200EAB6F820EAA6F000155EC09F003C013
:102ED0005EF202C05DF201C05CF200C05BF2020172
:102EE000622FE4D75EC26BF25DC26AF25CC269F225
:102EF0005BC268F2000168D703C05EF202C05DF2F7
:102F000001C05CF200C05BF202015EAF0DD0600751
:102F1000608B5B1F5C1F5D1F5E1F5B2BD8B45C2B3F
:102F2000D8B45D2BD8B45E2B3B0E676F9A0E666FDC
:102F3000CA0E656F646B0A0E626F5F51D8B4602B66
:102F4000D882020EEA6E5B0EE96E5EC26BF25DC263
:102F50006AF25CC269F25BC268F267C26FF266C273
:102F60006EF265C26DF264C26CF200014FDF015077
:102F7000005213E102015F29625DD8A402D0000172
:102F80000CD060510DE00F0B625D01E040E260BFCC
:102F90003ED060BD05D0200E34D0200E0201601757
:102FA00060AB0ED0609B5F51D8A460070050606F8B
:102FB0002D0E04009EA8FDD7AD6E6051006E606BB3
:102FC0005F51625D0CE10050606F2E0E04009EA800
:102FD000FDD7AD6E6051006E200E6017000E300EF2
:102FE00060AB0FD0609B5F51D8A460070050606F4A
:102FF0002D0E04009EA8FDD7AD6E6051006E606B73
:10300000300E0026005004009EA8FDD7AD6ED89269
:1030100067C26BF266C26AF265C269F264C268F2A4
:103020006F6B6E6B6D6B0A0E6C6F0001EFDE03C091
:1030300067F202C066F201C065F200C064F20201EC
:10304000622F7ED7000112001B6AF2BE1B8EF29E19
:103050000201C06B6AC1BFF2C26B510EC16F0001A9
:10306000B6EC06F01BBEF28E02C042F201C041F285
:10307000010E02014127000E4223280E4125016E58
:10308000000E4221036E0150230F016E000E032239
:1030900001C041F203C042F203C05EF201C05DF222
:1030A000010E616FFB0E606F9A0E5F6F080E626F0C
:1030B0000001FEEC0FF001C03EF202013E5101089A
:1030C000D8A08DD01B6AF2BE1B8EF29EC06B6AC167
:1030D000BFF2C26B510EC16F0001B6EC06F01BBE11
:1030E000F28E02C042F201C041F2010E02014127FC
:1030F000000E4223140E4125016E000E4221036E84
:103100000150230F016E000E032201C041F203C0E3
:1031100042F203C05EF201C05DF2000166EC10F005
:1031200001C03FF202013F51FF0A000103E0010A22
:103130000AE033D0840EF66E090EF76E000EF86EBC
:103140000AEC0CF04AD00201406B40510C0822E31B
:103150003E51100DF3504025040DF350036A6F0FDC
:10316000E96E010E0320EA6EEFCF5BF2ECCF5CF26A
:10317000ECCF5DF2ECCF5EF2890EE96E020E5F6F6E
:1031800000018EDE2C0E04009EA8FDD7AD6E02015C
:10319000402BDBD70D0E3F6F000102013E51100D99
:1031A000F3503F25040DF350036A6F0FE96E010ED3
:1031B0000320EA6EEFCF5BF2ECCF5CF2ECCF5DF276
:1031C000ECCF5EF2890EE96E020E5F6F000168DEE1
:1031D0000A0E04009EA8FDD7AD6E0AD00201960E1D
:1031E000F66E090EF76E000EF86E00010AEC0CF098
:1031F0002EEF49F002015B51040DF350680F5C6F34
:10320000030E5D6FD8B05D2B616B606B5F6B5E6BA7
:10321000020E636F5E0E626F646B645103081CE301
:1032200064516225E96E000E6321EA6E64515C25EB
:10323000676F000E5D21686FF2CF69F2F29E68C27F
:1032400063FF67C262FF7F9C7F9E7F80615069BF82
:10325000F28EEF6E642BE1D75EC200F05FC201F028
:1032600060C202F061C203F00001120002015B5172
:10327000040DF350880F5C6F030E5D6FD8B05D2BAB
:10328000616B606B5F6B5E6B020E636F5E0E626FF5
:10329000646B645103081CE364516225E96E000EFF
:1032A0006321EA6E64515C25676F000E5D21686FD3
:1032B000F2CF69F2F29E68C263FF67C262FF7F9C31
:1032C0007F9E7F80615069BFF28EEF6E642BE1D7E5
:1032D0005EC200F05FC201F060C202F061C203F0A2
:1032E00000011200D3EC08F00C0E0201606F5D5378
:1032F0000BE160C263F2656B646B010E666F0001E7
:1033000061EC13F00BD002015D2D09D060C263F2B5
:10331000656B646B666B000161EC13F002010001E8
:10332000D3EC08F0010E02016B6F0001BBEC08F05A
:1033300002015E512009616F5FC262F260C263F2F6
:1033400062C265F261C264F25DC266F2000161ECC4
:1033500013F0010E02016B6F0001BBEC08F01200CC
:103360001B6AF2BE1B8EF29E0201C06B6AC1BFF2E5
:10337000C26B510EC16F0001B6EC06F01BBEF28E9F
:1033800002C05CF201C05BF2010E02015B27000E7D
:103390005C23280E5B25016E000E5C21036E01503C
:1033A000230F016E000E032201C05BF203C05CF22A
:1033B00003C05EF201C05DF2010E616FFB0E606F33
:1033C0009A0E5F6F080E626F0001FEEC0FF001C0F5
:1033D0003EF202013E510108D8A08BD11B6AF2BE19
:1033E0001B8EF29EC06B6AC1BFF2C26B510EC16FE1
:1033F0000001B6EC06F01BBEF28E02C05CF201C00A
:103400005BF2010E02015B27000E5C23140E5B25AC
:10341000016E000E5C21036E0150230F016E000E41
:10342000032201C05BF203C05CF203C05EF201C084
:103430005DF2000166EC10F001C03FF202013F5165
:10344000FF0A000103E0010A0AE0B2D0A80EF66EFE
:10345000090EF76E000EF86E0AEC0CF048D102016E
:10346000406B40510C08D8A0A0D01B6AF2BE1B8E46
:10347000F29EC06B40C2BFF2C26B170EC16F00015B
:10348000B6EC06F01BBEF28E02C05CF201C05BF22D
:10349000150E02010124016E000E0220036E015080
:1034A00003C0F7FF000171EC02F0E8CF41F2020126
:1034B0003E2D24D01B6AF2BE1B8EF29EC06B40C212
:1034C000BFF2C26B170EC16F0001B6EC06F01BBE57
:1034D000F28E02C05CF201C05BF2160E0201012402
:1034E000016E000E0220036E015003C0F7FF0001C1
:1034F00071EC02F0016EE8CF41F2020141C25BF2D1
:10350000000178DE03C045F202C044F201C043F27C
:1035100000C042F241C25BF2A9DE03C049F202C020
:1035200048F201C047F200C046F2020140C25BF21D
:103530003EC25DF25F6B40C25EF20001D3DE02016B
:103540005C6B41C25BF249C260F248C25FF247C2A3
:103550005EF246C25DF245C264F244C263F243C207
:1035600062F242C261F200010CEC0BF003C04DF2BA
:1035700002C04CF201C04BF200C04AF2890EE96E63
:103580004DC25EF24CC25DF24BC25CF24AC25BF2CB
:10359000020E02015F6F000183DC2C0E04009EA866
:1035A000FDD7AD6E0201402B5CD70D0E3F6F0001C1
:1035B0001B6AF2BE1B8EF29E0201C06B3FC2BFF2BD
:1035C000C26B170EC16F0001B6EC06F01BBEF28E87
:1035D00002C05CF201C05BF2150E02010124016E13
:1035E000000E0220036E015003C0F7FF000171ECD2
:1035F00002F0E8CF4EF202013E2D24D01B6AF2BE4B
:103600001B8EF29EC06B3FC2BFF2C26B170EC16F22
:103610000001B6EC06F01BBEF28E02C05CF201C0E7
:103620005BF2160E02010124016E000E0220036EF1
:10363000015003C0F7FF000171EC02F0016EE8CF0A
:103640004EF202014EC25BF20001D4DD03C052F221
:1036500002C051F201C050F200C04FF24EC25BF204
:1036600005DE03C056F202C055F201C054F200C09C
:1036700053F202013FC25BF23EC25DF25F6B3FC29A
:103680005EF200012FDE02015C6B4EC25BF256C29D
:1036900060F255C25FF254C25EF253C25DF252C292
:1036A00064F251C263F250C262F24FC261F2000191
:1036B0000CEC0BF003C05AF202C059F201C058F2F0
:1036C00000C057F2890EE96E5AC25EF259C25DF22D
:1036D00058C25CF257C25BF2020E02015F6F00013A
:1036E00050EC17F00A0E04009EA8FDD7AD6E0AD06C
:1036F0000201BA0EF66E090EF76E000EF86E0001AA
:103700000AEC0CF02EEF49F002015F6B5F510708E5
:103710002AE35F51170DF350716B706F726F020ED9
:10372000EA6E600EE96E7051000132EC03F00A009F
:103730000900F550EE6E0009FBE1020E0201716F07
:10374000600E706F5EC273F25DC272F20001BEEC79
:103750000FF0015205E102015FC201F028D0000123
:1037600002015F2BD3D7020EEA6E680EE96E000EDF
:10377000000135EC04F00A000900F550EE6E000976
:10378000FBE1020E0201716F680E706F5EC273F290
:103790005DC272F20001BEEC0FF0015205E1FE0EB7
:1037A000016E020104D00001FF0E016E0201000152
:1037B00012001B6AF2BE1B8EF29E0201C06B6AC130
:1037C000BFF2C26B510EC16F0001B6EC06F01BBE1A
:1037D000F28E02C04DF201C04CF2010E02014C27E4
:1037E000000E4D23280E4C25016E000E4D21036E58
:1037F0000150230F016E000E032201C04CF203C0E2
:103800004DF203C05EF201C05DF2010E616FFB0E6E
:10381000606F460E5F6F080E626F0001FEEC0FF0E6
:1038200001C041F2020141510108D8A09CD11B6A9C
:10383000F2BE1B8EF29EC06B6AC1BFF2C26B510E0C
:10384000C16F0001B6EC06F01BBEF28E02C04DF255
:1038500001C04CF2010E02014C27000E4D23140E44
:103860004C25016E000E4D21036E0150230F016E99
:10387000000E032201C04CF203C04DF203C05EF201
:1038800001C05DF2000140DF01C042F2020142517D
:103890000708D8A05DD14251170DF3504D6B4C6F06
:1038A000080E4C25016E000E4D21036E01500001E3
:1038B00032EC03F0E8CF43F202014151080DF3501E
:1038C00043271B6AF2BE1B8EF29EC06B6AC1BFF219
:1038D000C26B510EC16F0001B6EC06F01BBEF28E3A
:1038E00002C04DF201C04CF2010E02014C27000E45
:1038F0004D233C0E4C25016E000E4D21036E0150F0
:10390000230F016E000E032201C04CF203C04DF2E2
:1039100003C04FF201C04EF2516B506B00017CECC2
:1039200011F003C047F202C046F201C045F200C0E8
:1039300044F202014151170DF3504D6B4C6F0D0EC7
:103940004C25016E000E4D21036E0150000132EC3A
:1039500003F0006E0900F5CF01F00900F5CF02F089
:103960000900F5CF03F047C2A9F246C2A8F245C24A
:10397000A7F244C2A6F203C0ADF202C0ACF201C08D
:10398000ABF2E8CFAAF2ACEC12F002E2D8A4D6D0A7
:1039900002014251170DF3504D6B4C6F090E4C252F
:1039A000016E000E4D21036E0150000132EC03F058
:1039B000006E0900F5CF01F00900F5CF02F0090013
:1039C000F5CF03F003C0A9F202C0A8F201C0A7F22C
:1039D000E8CFA6F247C2ADF246C2ACF245C2ABF2A6
:1039E00044C2AAF2ACEC12F002E2D8A4A7D00201C1
:1039F0004151080DF3504225040DF350036AEF0FB7
:103A0000E96E010E0320EA6E44C2EFFF45C2ECFFEF
:103A100046C2ECFF47C2ECFF4251170DF3504D6B0D
:103A20004C6F110E4C25016E000E4D21036E01509E
:103A3000000132EC03F00900F5CF01F00900F5CFE9
:103A400002F00900F5CF03F003C04BF202C04AF2C6
:103A500001C049F2E8CF48F247C2A9F246C2A8F233
:103A600045C2A7F244C2A6F24BC2ADF24AC2ACF2C2
:103A700049C2ABF248C2AAF255EC09F003C047F2C2
:103A800002C046F201C045F200C044F20201A96B37
:103A9000FE0EA86F7F0EA76F8D0EA66F47C2ADF208
:103AA00046C2ACF245C2ABF244C2AAF20001ACEC91
:103AB00012F004E3020140693F692CD047C2A9F229
:103AC00046C2A8F245C2A7F244C2A6F20201AD6BFB
:103AD000FE0EAC6FAB698D0EAA6F0001ACEC12F05C
:103AE00005E30201406B3F6B15D0000147C2A9F20C
:103AF00046C2A8F245C2A7F244C2A6F2E9EC12F00F
:103B000002C003F00150800E032601C03FF2020103
:103B100003C040F240C25CF23FC25BF2020E5D6F36
:103B200043C25EF20001B1EC13F0CC0EF66E090E4A
:103B3000F76E000EF86E0AEC0CF008D0D60EF66E9A
:103B4000090EF76E000EF86E0AEC0CF00AD00201B6
:103B5000E40EF66E090EF76E000EF86E00010AEC28
:103B60000CF00AD00201F60EF66E090EF76E000E8A
:103B7000F86E00010AEC0CF02EEF49F01B6AF2BE61
:103B80001B8EF29E0201C06B6AC1BFF2C26B510E66
:103B9000C16F0001B6EC06F01BBEF28E02C043F20C
:103BA00001C042F2010E02014227000E4323280EFB
:103BB0004225016E000E4321036E0150230F016E5A
:103BC000000E032201C042F203C043F203C05EF2C2
:103BD00001C05DF2010E616FFB0E606F460E5F6FFC
:103BE000080E626F0001FEEC0FF001C03FF202010F
:103BF0003F510108D8A08ED01B6AF2BE1B8EF29EE8
:103C0000C06B6AC1BFF2C26B510EC16F0001B6EC4E
:103C100006F01BBEF28E02C043F201C042F2010E5A
:103C200002014227000E4323140E4225016E000EAE
:103C30004321036E0150230F016E000E032201C0C9
:103C400042F203C043F203C05EF201C05DF2000124
:103C50005BDD01C040F202014051FF0A000103E0B8
:103C6000010A0AE034D0080EF66E0A0EF76E000E56
:103C7000F86E0AEC0CF04CD00201416B4151060881
:103C800023E33F51080DF3504125040DF350036A1F
:103C9000EF0FE96E010E0320EA6EEFCF5BF2ECCF7F
:103CA0005CF2ECCF5DF2ECCF5EF2890EE96E020EB3
:103CB0005F6F000150EC17F02C0E04009EA8FDD79A
:103CC000AD6E0201412BDAD7070E406F00010201F1
:103CD0003F51080DF3504025040DF350036AEF0FD8
:103CE000E96E010E0320EA6EEFCF5BF2ECCF5CF2DF
:103CF000ECCF5DF2ECCF5EF2890EE96E020E5F6FE3
:103D0000000150EC17F00A0E04009EA8FDD7AD6E1E
:103D10000AD002011A0EF66E0A0EF76E000EF86E49
:103D200000010AEC0CF02EEF49F01B6AF2BE1B8E6C
:103D3000F29E0201C06B6AC1BFF2C26B510EC16F2D
:103D40000001B6EC06F01BBEF28E02C05CF201C0B0
:103D50005BF2010E02015B27000E5C23280E5B253F
:103D6000016E000E5C21036E0150230F016E000EE8
:103D7000032201C05BF203C05CF203C05EF201C02B
:103D80005DF2010E616FFB0E606F460E5F6F080EF5
:103D9000626F0001FEEC0FF001C03EF202013E51E5
:103DA0000108D8A029D11B6AF2BE1B8EF29EC06BFF
:103DB0006AC1BFF2C26B510EC16F0001B6EC06F0D2
:103DC0001BBEF28E02C05CF201C05BF2010E02016A
:103DD0005B27000E5C23140E5B25016E000E5C2138
:103DE000036E0150230F016E000E032201C05BF22F
:103DF00003C05CF203C05EF201C05DF2000184DC2E
:103E000001C03FF202013F51FF0A000103E0010A35
:103E10000AE082D02C0EF66E0A0EF76E000EF86ED7
:103E20000AEC0CF0E7D00201406B4051060871E348
:103E30004051170DF3505C6B5B6F150E5B25016EE7
:103E4000000E5C21036E0150000132EC03F0016EA4
:103E5000E8CF41F241C25BF2FAEC18F003C045F240
:103E600002C044F201C043F200C042F241C25BF220
:103E700036EC19F003C049F202C048F201C047F223
:103E800000C046F202013E51080DF35040253F6F3D
:103E90003FC25BF2020E5D6F5F6B3FC25EF20001DC
:103EA00072EC19F002015C6B41C25BF249C260F234
:103EB00048C25FF247C25EF246C25DF245C264F29A
:103EC00044C263F243C262F242C261F200010CECEE
:103ED0000BF003C04DF202C04CF201C04BF200C027
:103EE0004AF2890EE96E4DC25EF24CC25DF24BC2DF
:103EF0005CF24AC25BF2020E02015F6F000150ECFD
:103F000017F02C0E04009EA8FDD7AD6E0201402BC9
:103F10008CD7070E3F6F000102013F51170DF35080
:103F20005C6B5B6F150E5B25016E000E5C21036EF2
:103F30000150000132EC03F0016EE8CF4EF24EC2A8
:103F40005BF2FAEC18F003C052F202C051F201C069
:103F500050F200C04FF24EC25BF236EC19F003C0D3
:103F600056F202C055F201C054F200C053F20201F1
:103F70003E51080DF3503F273FC25BF2020E5D6FCA
:103F80005F6B3FC25EF2000172EC19F002015C6BE4
:103F90004EC25BF256C260F255C25FF254C25EF28C
:103FA00053C25DF252C264F251C263F250C262F275
:103FB0004FC261F200010CEC0BF003C05AF202C0D8
:103FC00059F201C058F200C057F2890EE96E5AC288
:103FD0005EF259C25DF258C25CF257C25BF2020E49
:103FE00002015F6F000150EC17F00A0E04009EA85A
:103FF000FDD7AD6E0AD002013E0EF66E0A0EF76EC8
:10400000000EF86E00010AEC0CF02EEF49F00201F0
:104010003F53D8A413D140510308D8A40FD1416B0A
:1040200041513F0824E3010E586FEF0E576F415185
:104030005725016E000E5821036E0150E96E03C032
:10404000EAFF41513F25596F000E40215A6FF2CFD0
:104050005BF2F29E5AC263FF59C262FF7F9C7F9E51
:104060007F8061505BBFF28EEF6E412BD9D7416BE1
:10407000415107086DE34151170DF350586B576FCD
:10408000080E5725016E000E5821036E01500001E5
:1040900032EC03F0016EE8CF42F202014151170DFC
:1040A000F350586B576F110E5725016E000E5821B3
:1040B000036E0150000132EC03F0006E0900F5CFF1
:1040C00001F00900F5CF02F00900F5CF03F003C0BD
:1040D000A9F202C0A8F201C0A7F2E8CFA6F202013D
:1040E0004151040DF350036AEF0FE96E010E0320F6
:1040F000EA6EEFCFAAF2ECCF01F0ECCF02F0ECCFFA
:1041000003F003C0ADF202C0ACF201C0ABF200019B
:1041100055EC09F003C0A9F202C0A8F201C0A7F251
:1041200000C0A6F2E9EC12F001C043F20201800ED9
:104130000224446F44C25CF243C25BF2020E5D6F24
:1041400042C25EF20001B1EC13F00201412B90D7A4
:10415000416B4151070871E34151170DF350586B02
:10416000576F080E5725016E000E5821036E01503F
:10417000000132EC03F0016EE8CF45F2020141513B
:10418000170DF350586B576F110E5725016E000E27
:104190005821036E0150000132EC03F0006E09005B
:1041A000F5CF01F00900F5CF02F00900F5CF03F0DB
:1041B00003C0A9F202C0A8F201C0A7F2E8CFA6F29C
:1041C000080E02014125040DF350036AEF0FE96E5A
:1041D000010E0320EA6EEFCFAAF2ECCF01F0ECCF94
:1041E00002F0ECCF03F003C0ADF202C0ACF201C0AC
:1041F000ABF2000155EC09F003C0A9F202C0A8F22D
:1042000001C0A7F200C0A6F2E9EC12F001C046F22C
:104210000201800E0224476F080E4525576F47C2E2
:104220005CF246C25BF2020E5D6F57C25EF20001A5
:10423000B1EC13F00201412B8CD7D9D2416B415123
:104240007F0824E3010E586F6F0E576F41515725B9
:10425000016E000E5821036E0150E96E03C0EAFFA3
:1042600041513F25596F000E40215A6FF2CF5BF24A
:10427000F29E5AC263FF59C262FF7F9C7F9E7F807D
:1042800061505BBFF28EEF6E412BD9D7130E486F92
:10429000890EA96F880EA86F080EA76F8A0EA66FE9
:1042A0009EC1ADF29DC1ACF29CC1ABF29BC1AAF222
:1042B000000155EC09F003C0A9F202C0A8F201C048
:1042C000A7F200C0A6F2E9EC12F001C049F2020127
:1042D000800E02244A6F4AC25CF249C25BF25D6BF7
:1042E00048C25EF20001B1EC13F0890E0201A96F21
:1042F000880EA86F080EA76F8A0EA66FDEC1ADF2FA
:10430000DDC1ACF2DCC1ABF2DBC1AAF2000155ECBD
:1043100009F003C0A9F202C0A8F201C0A7F200C0D0
:10432000A6F2E9EC12F001C049F20201800E02246B
:104330004A6F4AC25CF249C25BF2010E5D6F48C22D
:104340005EF20001B1EC13F00201416B41510A0829
:10435000D8A08ED01B6AF2BE1B8EF29EC06B41C2EB
:10436000BFF2C26B170EC16F0001B6EC06F01BBEA8
:10437000F28E02C058F201C057F2080E0201012469
:10438000016E000E0220036E015003C0F7FF000112
:1043900071EC02F0016EE8CF4BF21B6AF2BE1B8E8D
:1043A000F29E0201C06B41C2BFF2C26B170EC16F19
:1043B0000001B6EC06F01BBEF28E02C058F201C03E
:1043C00057F2110E02010124016E000E0220036E4D
:1043D000015003C0F7FF000171EC02F0006E09000C
:1043E000F5CF01F00900F5CF02F00900F5CF03F099
:1043F00003C0A9F202C0A8F201C0A7F2E8CFA6F25A
:1044000002014151040DF350036A6F0FE96E010E72
:104410000320EA6EEFCFAAF2ECCF01F0ECCF02F06E
:10442000ECCF03F003C0ADF202C0ACF201C0ABF2BE
:10443000000155EC09F003C0A9F202C0A8F201C0C6
:10444000A7F200C0A6F2E9EC12F001C04CF20201A2
:10445000800E02244D6F4DC25CF24CC25BF25D6B6C
:104460004BC25EF20001B1EC13F00201412B6ED79A
:104470000C0E416F41510F08D8A08ED01B6AF2BEBE
:104480001B8EF29EC06B41C2BFF2C26B170EC16F92
:104490000001B6EC06F01BBEF28E02C058F201C05D
:1044A00057F2080E02010124016E000E0220036E75
:1044B000015003C0F7FF000171EC02F0016EE8CF7C
:1044C0004EF21B6AF2BE1B8EF29E0201C06B41C20D
:1044D000BFF2C26B170EC16F0001B6EC06F01BBE37
:1044E000F28E02C058F201C057F2110E02010124EF
:1044F000016E000E0220036E015003C0F7FF0001A1
:1045000071EC02F0006E0900F5CF01F00900F5CF63
:1045100002F00900F5CF03F003C0A9F202C0A8F22F
:1045200001C0A7F2E8CFA6F202014151040DF350F9
:10453000036A6F0FE96E010E0320EA6EEFCFAAF255
:10454000ECCF01F0ECCF02F0ECCF03F003C0ADF202
:1045500002C0ACF201C0ABF2000155EC09F003C09F
:10456000A9F202C0A8F201C0A7F200C0A6F2E9ECCD
:1045700012F001C04FF20201800E0224506F50C2AF
:104580005CF24FC25BF25D6B4EC25EF20001B1ECB9
:1045900013F00201412B6ED7416B41510A08D8A09C
:1045A00090D01B6AF2BE1B8EF29EC06B41C2BFF25E
:1045B000C26B170EC16F0001B6EC06F01BBEF28E87
:1045C00002C058F201C057F2080E02010124016E28
:1045D000000E0220036E015003C0F7FF000171ECD2
:1045E00002F0016EE8CF51F21B6AF2BE1B8EF29E02
:1045F0000201C06B41C2BFF2C26B170EC16F000156
:10460000B6EC06F01BBEF28E02C058F201C057F2A3
:10461000110E02010124016E000E0220036E0150F2
:1046200003C0F7FF000171EC02F0006E0900F5CF46
:1046300001F00900F5CF02F00900F5CF03F003C047
:10464000A9F202C0A8F201C0A7F2E8CFA6F2100EAC
:1046500002014125040DF350036A6F0FE96E010E4C
:104660000320EA6EEFCFAAF2ECCF01F0ECCF02F01C
:10467000ECCF03F003C0ADF202C0ACF201C0ABF26C
:10468000000155EC09F003C0A9F202C0A8F201C074
:10469000A7F200C0A6F2E9EC12F001C052F202014A
:1046A000800E0224536F53C25CF252C25BF2010EC1
:1046B0005D6F51C25EF20001B1EC13F00201412BBB
:1046C0006CD70C0E416F41510F08D8A090D01B6AD7
:1046D000F2BE1B8EF29EC06B41C2BFF2C26B170EC0
:1046E000C16F0001B6EC06F01BBEF28E02C058F29C
:1046F00001C057F2080E02010124016E000E0220D3
:10470000036E015003C0F7FF000171EC02F0016E6F
:10471000E8CF54F21B6AF2BE1B8EF29E0201C06B00
:1047200041C2BFF2C26B170EC16F0001B6EC06F0BA
:104730001BBEF28E02C058F201C057F2110E0201E8
:104740000124016E000E0220036E015003C0F7FF2A
:10475000000171EC02F0006E0900F5CF01F00900D4
:10476000F5CF02F00900F5CF03F003C0A9F202C0B3
:10477000A8F201C0A7F2E8CFA6F2100E020141256F
:10478000040DF350036A6F0FE96E010E0320EA6E09
:10479000EFCFAAF2ECCF01F0ECCF02F0ECCF03F0B8
:1047A00003C0ADF202C0ACF201C0ABF2000155ECA7
:1047B00009F003C0A9F202C0A8F201C0A7F200C02C
:1047C000A6F2E9EC12F001C055F20201800E0224BB
:1047D000566F56C25CF255C25BF2010E5D6F54C259
:1047E0005EF20001B1EC13F00201412B6CD7000125
:1047F00012001B6AF2BE1B8EF29E0201C06B6AC1E0
:10480000BFF2C26B510EC16F0001B6EC06F01BBEC9
:10481000F28E02C040F201C03FF2010E02013F27BA
:10482000000E4023140E3F25016E000E4021036E42
:104830000150230F016E000E032201C03FF203C09E
:1048400040F203C05EF201C05DF2010E616FFB0E2B
:10485000606F0C0E5F6F080E626F0001FEEC0FF0D0
:1048600001C03EF202013E51000A00010DE0010AC2
:104870001CE0030A2CE0010A3DE0070A4DE0010AB2
:104880005DE0030A6EE07DD00201406B3F6B0001EA
:1048900007EC20F03EC23CF2500EF66E0A0EF76EA8
:1048A000000EF86E0AEC0CF074D00201406B800E22
:1048B0003F6F000107EC20F03EC23CF25A0EF66E4C
:1048C0000A0EF76E000EF86E0AEC0CF062D0010EC4
:1048D0000201406F800E3F6F000107EC20F03EC2E6
:1048E0003CF2640EF66E0A0EF76E000EF86E0AECDD
:1048F0000CF04FD0010E0201406F3F6B000107EC3E
:1049000020F03EC23CF26E0EF66E0A0EF76E000EFE
:10491000F86E0AEC0CF03DD0020E0201406F3F6BC6
:10492000000107EC20F03EC23CF2780EF66E0A0E53
:10493000F76E000EF86E0AEC0CF02BD0020E02019E
:10494000406F800E3F6F000107EC20F03EC23CF24A
:10495000820EF66E0A0EF76E000EF86E0AEC0CF080
:1049600018D0030E0201406F3F6B000107EC20F0EE
:104970008C0EF66E0A0EF76E000EF86E0AEC0CF056
:1049800008D0960EF66E0A0EF76E000EF86E0AEC60
:104990000CF02EEF49F002013F5338E1405103087B
:1049A00035E1416B41513F0830E341513F25426FB2
:1049B000000E4021436F010E456FEF0E446F4151D1
:1049C0004425016E000E4521036E0150E96E03C0BF
:1049D000EAFFEFCF44F2F250006EF29E43C263FF53
:1049E00042C262FF44C261FF7F9C7F9E7F840F01B1
:1049F000550E7E6EAA0E7E6E7F827FB2FED77F94AA
:104A00000050F2120201412BCDD734D0416B4151FD
:104A10007F0830E341513F25426F000E4021436F34
:104A2000010E456F6F0E446F41514425016E000E1B
:104A30004521036E0150E96E03C0EAFFEFCF44F257
:104A4000F250006EF29E43C263FF42C262FF44C254
:104A500061FF7F9C7F9E7F840F01550E7E6EAA0EA4
:104A60007E6E7F827FB2FED77F940050F2120201E9
:104A7000412BCDD7000112001B6AF2BE1B8EF29EA5
:104A80000201C06B6AC1BFF2C26B510EC16F00015F
:104A9000B6EC06F01BBEF28E02C040F201C03FF23F
:104AA000010E02013F27000E4023140E3F25016E28
:104AB000000E4021036E0150230F016E000E0322F1
:104AC00001C03FF203C040F203C05EF201C05DF2DC
:104AD000010E616FFB0E606F0C0E5F6F080E626F50
:104AE0000001FEEC0FF001C03EF202013E51000A4F
:104AF00000010DE0010A19E0030A26E0010A34E092
:104B0000070A41E0010A4EE0030A5CE06AD00201B4
:104B1000406B3F6B00013FDFA80EF66E0A0EF76E8A
:104B2000000EF86E0AEC0CF064D00201406B800EAF
:104B30003F6F000130DFB20EF66E0A0EF76E000E08
:104B4000F86E0AEC0CF055D0010E0201406F800E99
:104B50003F6F000120DFBC0EF66E0A0EF76E000EEE
:104B6000F86E0AEC0CF045D0010E0201406F3F6B6D
:104B7000000111DFC60EF66E0A0EF76E000EF86E1B
:104B80000AEC0CF036D0020E0201406F3F6B0001C0
:104B900002DFD00EF66E0A0EF76E000EF86E0AEC0B
:104BA0000CF027D0020E0201406F800E3F6F000113
:104BB000F2DEDA0EF66E0A0EF76E000EF86E0AECF2
:104BC0000CF017D0030E0201406F3F6B0001E3DED3
:104BD000E40EF66E0A0EF76E000EF86E0AEC0CF09C
:104BE00008D0EE0EF66E0A0EF76E000EF86E0AECA6
:104BF0000CF02EEF49F002013C51000A00010BE0DD
:104C0000010A17E0020A23E0010A2FE0060A3BE04E
:104C1000010A47E054D0020EF66E0B0EF76E000E3E
:104C2000F86E0AEC0CF00A0E04009EA8FDD7AD6EDB
:104C30004ED0080EF66E0B0EF76E000EF86E0AECF4
:104C40000CF00A0E04009EA8FDD7AD6E40D00E0EEB
:104C5000F66E0B0EF76E000EF86E0AEC0CF00A0EF4
:104C600004009EA8FDD7AD6E32D0140EF66E0B0E6A
:104C7000F76E000EF86E0AEC0CF00A0E04009EA807
:104C8000FDD7AD6E24D01C0EF66E0B0EF76E000E27
:104C9000F86E0AEC0CF00A0E04009EA8FDD7AD6E6B
:104CA00016D0220EF66E0B0EF76E000EF86E0AECA2
:104CB0000CF00A0E04009EA8FDD7AD6E08D02A0E97
:104CC000F66E0B0EF76E000EF86E0AEC0CF02EEF7F
:104CD00049F0F00E986E8F96986E8F92000E966E39
:104CE0008D9A120084A018D0020131A102D08F96B3
:104CF00001D08F86F00E986E31B302D08F9201D022
:104D00008F82F00E986E31B502D08D9A01D08D8AC7
:104D1000000E966E0AD00001F00E986E8F96986E77
:104D20008F92000E966E8D9A02010001120084A0EF
:104D30000AD084AA04D0310E016E11D003D0300EF7
:104D4000016E0DD00CD0020131A106D0780E016E9B
:104D5000000105D004D002016F0E016E00011200A7
:104D6000020131950001BEDFE2DF0150120084A094
:104D70000AD086A604D0300E016E11D003D0310EB9
:104D8000016E0DD00CD0020131A106D0780E016E5B
:104D9000000105D004D002016F0E016E0001120067
:104DA0000201319100019EDFE2DF01501200020199
:104DB0003185000197DFBBDF015012000201318114
:104DC000000190DFD4DF015041EF28F01B6AF2BEF2
:104DD0001B8EF29E0201C06B6AC1BFF2C26B510E04
:104DE000C16F0001B6EC06F01BBEF28E02C041F2AC
:104DF00001C040F2010E02014027000E4123280E9F
:104E00004025016E000E4121036E0150230F016EFB
:104E1000000E032201C040F203C041F203C05EF263
:104E200001C05DF2010E616FFA0E606FA00E5F6F40
:104E3000080E626F0001FEEC0FF001C03EF21B6A2B
:104E4000F2BE1B8EF29E0201C06B6AC1BFF2C26B42
:104E5000510EC16F0001B6EC06F01BBEF28E02C00F
:104E600041F201C040F2010E02014027000E412331
:104E7000140E4025016E000E4121036E0150230FD8
:104E8000016E000E032201C040F203C041F203C0D4
:104E90005EF201C05DF2010E616FFA0E606FB20E3C
:104EA0005F6F080E626F0001FEEC0FF001C03FF271
:104EB00002013E2D78D03F51000A000115E0010AA1
:104EC0001DE0030A1FE0010A22E0070A2FE0010AA1
:104ED00031E0030A33E0010A33E00F0A35E0010A4A
:104EE00037E0030A37E04CD0340EF66E0B0EF76E47
:104EF000000EF86E0AEC0CF0D7D04BD0000E966E78
:104F00008D9247D0E6DE000E966E8D9042D0020163
:104F10004C6B00010BEC14F0010E02014C6F000110
:104F20000BEC14F0000E966E8D9433D0000E966E3E
:104F30008D962FD0000E966E8D982BD011DF29D034
:104F4000000E966E8D9C25D0000E966E8D9E21D003
:104F500027DF1FD0000E966E8D92966E8D98966EFE
:104F60008D9A1EDFFDDEB5DE000E966E8D90966E7C
:104F70008D94966E8D96966E8D9C966E8D9E09D0B4
:104F8000480EF66E0B0EF76E000EF86E0AEC0CF083
:104F90008BD05C0EF66E0B0EF76E000EF86E0AEC00
:104FA0000CF082D002013E53D8A475D03F51000AC4
:104FB000000115E0010A1CE0030A20E0010A23E0D9
:104FC000070A28E0010A2AE0030A2CE0010A2CE083
:104FD0000F0A2EE0010A30E0030A30E049D0660EE5
:104FE000F66E0B0EF76E000EF86E0AEC0CF05CD04D
:104FF000000E966E8D8273EC0BF043D0000E966E11
:105000008D8070DE3ED0F00E986E8F86000E966E0C
:105010008D8437D0000E966E8D8633D0000E966E3E
:105020008D882FD0C4DE2DD0000E966E8D8C29D0A9
:10503000000E966E8D8E25D0C1D623D00F0E926EA7
:105040008988000E966E8D82966E8D88966E8D8AFA
:10505000966E8D80ACDE46DE000E966E8D84966E6A
:105060008D86966E8D8C966E8D8E73EC0BF009D0BE
:105070007A0EF66E0B0EF76E000EF86E0AEC0CF060
:1050800013D08C0EF66E0B0EF76E000EF86E0AEC57
:105090000CF00AD00201960EF66E0B0EF76E000EA3
:1050A000F86E00010AEC0CF02EEF49F00201645199
:1050B000016A635D03E263C200F00CD0006A080E6F
:1050C000656F633700366451005CD8B0006E0136FE
:1050D000652FF7D700011200200E02015EA9300EE5
:1050E0005F6F5DC200F000AE08D0001E002A00C055
:1050F0005DF22D0E5F6F5E8F5E8101505DC263F2C7
:10510000640E646F0001D2DF00C05DF2300E012436
:105110000201606F5DC263F20A0E646F0001C6DFB8
:10512000300E00240201626F300E0124616F5FC2F5
:1051300000F0300E605D04E05E835EBF5E8512D0DD
:105140005FC260F2200E5F6F300E615D04E05E8131
:105150005EBF5E8307D0D8A45E8104E160C261F2C5
:10516000200E606F5EB505D05EB308D05EB10BD087
:105170000FD05F5104009EA8FDD7AD6E60510400B2
:105180009EA8FDD7AD6E615104009EA8FDD7AD6EFF
:10519000625104009EA8FDD7AD6E0001120002010D
:1051A0003E6B3F6B1B6AF2BE1B8EF29EC06B6AC1E8
:1051B000BFF2C26B510EC16F0001B6EC06F01BBE10
:1051C000F28E02C056F201C055F2010E02015527BF
:1051D000000E5623140E5525016E000E5621036E47
:1051E0000150230F016E000E032201C055F203C0CF
:1051F00056F203C05EF201C05DF2010E616FFA0E5D
:10520000606FB20E5F6F080E626F0001FEEC0FF070
:1052100001C052F28CDD01C053F2A9DD01C054F28D
:1052200002015251000A00011AE0010A28E0030AB3
:1052300036E0010A44E0070A52E0010A60E0030A8E
:10524000D8B46DD0010AD8B477D00F0AD8B484D0BE
:10525000010AD8B491D0030AD8B49BD004D1000E6F
:1052600080B8010E0201556F5D6F180E5E6F000170
:1052700033DF0A0E04009EA8FDD7AD6EFCD0000EF1
:1052800084B2010E0201556F5D6F180E5E6F000152
:1052900023DF0A0E04009EA8FDD7AD6EECD0000EF1
:1052A00084B0010E0201556F5D6F180E5E6F000134
:1052B00013DF0A0E04009EA8FDD7AD6EDCD0000EF1
:1052C00084B4010E0201556F5D6F180E5E6F000110
:1052D00003DF0A0E04009EA8FDD7AD6ECCD0000EF1
:1052E00084B6010E0201556F5D6F180E5E6F0001EE
:1052F000F3DE0A0E04009EA8FDD7AD6EBCD0000EF2
:1053000084B8010E0201556F5D6F180E5E6F0001CB
:10531000E3DE0A0E04009EA8FDD7AD6EACD00201FC
:10532000535104009EA8FDD7AD6E0A0E04009EA83E
:10533000FDD7AD6E00019FD0000E84BC010E0201AE
:10534000556F5D6F180E5E6F0001C6DE0A0E040019
:105350009EA8FDD7AD6E8FD0000E84BE010E020157
:10536000556F5D6F180E5E6F0001B6DE0A0E040009
:105370009EA8FDD7AD6E7FD00201545104009EA8B7
:10538000FDD7AD6E0A0E04009EA8FDD7AD6E0001DC
:1053900072D0000E80B8010E0201556F000E84B26B
:1053A000010E566F000E84B8010E576F000E84B0C8
:1053B000010E586F000E84B4010E596F000E84B6B2
:1053C000010E5A6F000E84BC010E5B6F000E84BE8E
:1053D000010E5C6F55C25DF2180E5E6F00017CDE3F
:1053E00056C25DF2180E02015E6F000175DE57C2F3
:1053F0005DF2180E02015E6F00016EDE0201535174
:1054000004009EA8FDD7AD6E58C25DF2180E5E6F07
:10541000000162DE59C25DF2180E02015E6F0001EA
:105420005BDE5AC25DF2180E02015E6F000154DEAF
:105430005BC25DF2180E02015E6F00014DDE5CC2C0
:105440005DF2180E02015E6F000146DE020154514A
:1054500004009EA8FDD7AD6E0A0E04009EA8FDD7DD
:10546000AD6E000108D0AA0EF66E0B0EF76E000EA0
:10547000F86E0AEC0CF02EEF49F084A00AD086A258
:1054800004D0000E016E11D003D0010E016E0DD0BC
:105490000CD0020131A306D0020E016E000105D02E
:1054A00004D00201030E016E0001120002013183DB
:1054B000000118DCE2DF0150B4EF2AF00201319361
:1054C000000110DCDADF0150B4EF2AF01B6AF2BEF3
:1054D0001B8EF29E0201C06B6AC1BFF2C26B510EFD
:1054E000C16F0001B6EC06F01BBEF28E02C040F2A6
:1054F00001C03FF2010E02013F27000E4023140EAF
:105500003F25016E000E4021036E0150230F016EF6
:10551000000E032201C03FF203C040F203C05EF25E
:1055200001C05DF2010E616FFA0E606F8E0E5F6F4B
:10553000080E626F0001FEEC0FF001C03EF20201A6
:105540003E51000A000103E0010A03E004D0AED797
:105550000BD0B4D709D0BE0EF66E0B0EF76E000E50
:10556000F86E0AEC0CF008D0D20EF66E0B0EF76E49
:10557000000EF86E0AEC0CF02EEF49F07EDF0150C1
:10558000FC0F44E2040F08EF2BF0DC0EF66E0B0E5E
:10559000F76E000EF86E0AEC0CF00A0E04009EA8DE
:1055A000FDD7AD6E33D0E20EF66E0B0EF76E000E29
:1055B000F86E0AEC0CF00A0E04009EA8FDD7AD6E42
:1055C00025D02A0E04009EA8FDD7AD6EE80EF66E1B
:1055D0000B0EF76E000EF86E0AEC0CF00A0E0400CB
:1055E0009EA8FDD7AD6E12D02A0E04009EA8FDD74E
:1055F000AD6EEE0EF66E0B0EF76E000EF86E0AEC48
:105600000CF00A0E04009EA8FDD7AD6E2EEF49F0F7
:10561000E824F76AF736310FF66E560EF722000EC1
:10562000F86EFB6E0A00F550FA6E0800F550F96E40
:10563000A6558A55E855C2550201476B47510908DE
:105640002AE34751150DF350596B586F5A6F020EEC
:10565000EA6E480EE96E5851000198EC03F00A001A
:105660000900F550EE6E0009FBE1020E0201716FB8
:10567000480E706F46C273F245C272F20001BEEC72
:105680000FF0015205E1020147C201F028D00001EC
:105690000201472BD3D7020EEA6E500EE96E000EC0
:1056A000000135EC04F00A000900F550EE6E000927
:1056B000FBE1020E0201716F500E706F46C273F271
:1056C00045C272F20001BEEC0FF0015205E1FE0E80
:1056D000016E020104D00001FF0E016E0201000103
:1056E000120002014951040DF350400F4A6F030E9E
:1056F0004B6FD8B04B2B4F6B4E6B4D6B4C6B020E00
:10570000516F4C0E506F526B525103081CE35251B3
:105710005025E96E000E5121EA6E52514A25556F0F
:10572000000E4B21566FF2CF57F2F29E56C263FF26
:1057300055C262FF7F9C7F9E7F80615057BFF28E73
:10574000EF6E522BE1D74CC200F04DC201F04EC2B9
:1057500002F04FC203F00001D2EF2BF002015235EC
:10576000006E0036FC0E0016C250830B0010C26E95
:10577000000E016EC150F80B0110C16E0400340E12
:10578000006E002EFED700D0C282C2B2FED7C4CFB8
:1057900003F0C3CF01F0C4CF02F00001120040C2F9
:1057A00049F29FD703C044F202C043F201C042F263
:1057B00000C041F202014051150DF3504A6B496F90
:1057C000080E4925016E000E4A21036E01500001AA
:1057D00098EC03F00201496F526F0001BFDF02C075
:1057E000ABF201C0AAF23AEC09F003C04CF202C0DD
:1057F0004BF201C04AF200C049F203C0A9F202C054
:10580000A8F201C0A7F200C0A6F244C2ADF243C2A2
:10581000ACF242C2ABF241C2AAF255EC09F003C0AD
:1058200048F202C047F201C046F200C045F245C24C
:1058300000F046C201F047C202F048C203F0120075
:105840001B6AF2BE1B8EF29E0201C06B6AC1BFF2E0
:10585000C26B510EC16F0001B6EC06F01BBEF28E9A
:1058600002C041F201C040F2010E02014027000EC9
:105870004123140E4025016E000E4121036E01509C
:10588000230F016E000E032201C040F203C041F25B
:1058900003C046F201C045F20001CEDE01C03EF277
:1058A00002013E51FF0A000103E0010A0AE035D07F
:1058B000F40EF66E0B0EF76E000EF86E0AEC0CF09E
:1058C0004CD002013F6B3F51080824E33FC240F235
:1058D000000165DF03C043F202C042F201C041F2A1
:1058E00000C040F2890EE96E03C05EF202C05DF2B4
:1058F00001C05CF200C05BF2020E02015F6F0001AA
:1059000050EC17F02C0E04009EA8FDD7AD6E0201DE
:105910003F2BD9D7090E3E6F00013EC240F23FDF58
:1059200003C043F202C042F201C041F200C040F2A3
:10593000890EE96E03C05EF202C05DF201C05CF246
:1059400000C05BF2020E02015F6F000150EC17F025
:105950000A0E04009EA8FDD7AD6E2EEF49F002019D
:105960004751150DF350526B516F080E5125016EC2
:10597000000E5221036E0150000198EC03F0020169
:10598000516F526F0001EADE02C0ABF201C0AAF211
:105990003AEC09F046C2A2F245C2A1F244C2A0F21A
:1059A00043C29FF203C0A6F202C0A5F201C0A4F256
:1059B00000C0A3F2CDEC10F003C04BF202C04AF2DB
:1059C00001C049F200C048F2020E02014D6F480EBC
:1059D0004C6F4751040DF350400F4E6F030E4F6F45
:1059E000D8B04F2B506B5051030828E350514E252F
:1059F000516F000E4F21526F50514C25E96E000E31
:105A00004D21EA6EEFCF53F2F250006EF29E52C279
:105A100063FF51C262FF53C261FF7F9C7F9E7F8400
:105A20000F01550E7E6EAA0E7E6E7F827FB2FED76C
:105A30007F940050F2120201502BD5D70001F3EFF2
:105A40002DF01B6AF2BE1B8EF29E0201C06B6AC172
:105A5000BFF2C26B510EC16F0001B6EC06F01BBE67
:105A6000F28E02C044F201C043F2010E020143274C
:105A7000000E4423140E4325016E000E4421036ED4
:105A80000150230F016E000E032201C043F203C038
:105A900044F203C046F201C045F20001CDDD01C071
:105AA0003EF202013E510908D8A0B0D01B6AF2BEF6
:105AB0001B8EF29EC06B6AC1BFF2C26B510EC16FEA
:105AC0000001B6EC06F01BBEF28E02C044F201C02B
:105AD00043F2010E02014327000E4423280E432502
:105AE000016E000E4421036E0150230F016E000E63
:105AF000032201C043F203C044F203C04FF201C0CD
:105B00004EF2516B506B00017CEC11F003C042F27D
:105B100002C041F201C040F200C03FF202013E511A
:105B2000150DF350446B436F090E4325016E000EB3
:105B30004421036E0150000198EC03F0006E09004F
:105B4000F5CF01F00900F5CF02F00900F5CF03F021
:105B500003C0A9F202C0A8F201C0A7F2E8CFA6F2E2
:105B600042C2ADF241C2ACF240C2ABF23FC2AAF2B5
:105B7000ACEC12F041E302013E51150DF350446BC1
:105B8000436F0D0E4325016E000E4421036E01503C
:105B9000000198EC03F0006E0900F5CF01F0090058
:105BA000F5CF02F00900F5CF03F042C2A9F241C2DD
:105BB000A8F240C2A7F23FC2A6F203C0ADF202C0F3
:105BC000ACF201C0ABF2E8CFAAF2ACEC12F014E3F5
:105BD00042C246F241C245F240C244F23FC243F2E1
:105BE0003EC247F2BCD6060EF66E0C0EF76E000EE5
:105BF000F86E0AEC0CF008D0100EF66E0C0EF76E74
:105C0000000EF86E0AEC0CF00AD002011E0EF66EC1
:105C10000C0EF76E000EF86E00010AEC0CF02EEF81
:105C200049F0C69A000EC76E220EC66E920E946E92
:105C3000946E946E87EF38F0000E956E8C9204008F
:105C40001A0E006E002EFED7C950060EC96EC73060
:105C5000FEE304001A0E006E002EFED7000E956EB5
:105C60008C820400020E0201566FF90E606F000173
:105C70009FEC13F00201562FF8D700018CEF38F09B
:105C8000000E956E8C9204001A0E006E002EFED748
:105C9000C950160EC96EC730FEE304001A0E006E1E
:105CA000002EFED7000E956E8C820400020E0201BB
:105CB000566FF90E606F00019FEC13F00201562F32
:105CC000F8D7000194EF38F0000E956E8C92040026
:105CD0001A0E006E002EFED7400E02015725586F97
:105CE000C95058C2C9FFC730FEE3C950C96AC7309E
:105CF000FEE3C95056C2C9FFC730FEE304001A0EC6
:105D0000006E002EFED7000E956E8C820400020EEF
:105D1000586FF90E606F00019FEC13F00201582FCD
:105D2000F8D700011200000E956E8C9204001A0E36
:105D3000006E002EFED7200E02015625586FC95066
:105D400058C2C9FFC730FEE3C950C96AC730FEE375
:105D5000C950C968C730FEE3C9CF57F204001A0E14
:105D6000006E002EFED7000E956E8C820400020E8F
:105D7000586FF90E606F00019FEC13F00201582F6D
:105D8000F8D757C201F000011200000E956E8C92F8
:105D900004001A0E006E002EFED7C950120EC96EF6
:105DA000C730FEE3C950C968C730FEE3C9CF58F217
:105DB00002015851800B596F589FC950C968C730AC
:105DC000FEE3C9CF57F2C950C968C730FEE3C9CF57
:105DD00056F204001A0E006E002EFED7000E956ECD
:105DE0008C820400020E5A6FF90E606F00019FEC66
:105DF00013F002015A2FF8D756C200F057C201F033
:105E000058C202F059C203F000010BEF39F0B60E90
:105E1000006E036A026A016A020156515711581155
:105E2000591102E1006A0DD0D89001BE09D0563751
:105E3000573758375937033602360136002EF4D714
:105E4000019E000112000201A59199C29EF298C222
:105E50009DF297C29CF296C29BF299C2A9F298C297
:105E6000A8F297C2A7F296C2A6F2AD6BAC6BAB6B71
:105E7000AA6B0001ACEC12F006E30201A5819C5173
:105E8000800A9C6F00019EC2A9F29DC2A8F29CC22A
:105E9000A7F29BC2A6F20201AD6BAC6BAB6B8E0E90
:105EA000AA6F0001ACEC12F001E219E19EC2A9F266
:105EB0009DC2A8F29CC2A7F29BC2A6F2E9EC12F026
:105EC00002C0ABF201C0AAF23AEC09F003C0A2F2A0
:105ED00002C0A1F201C0A0F200C09FF2D3D09EC2C6
