:0404000041EF49F08F
:08040800046ED8CF05F0E0CF2F
:1004100006F00001E9CF0CF0EACF07F0E1CF08F0D9
:10042000E2CF09F0D9CF0AF0DACF0BF0F3CF12F018
:10043000F4CF13F0FACF14F0F5CF15F0F6CF16F095
:10044000F7CF17F0F8CF18F0FBCF19F000C00EF07F
:1004500001C00FF002C010F003C011F09DA034EFF6
:1004600002F09EB041EF04F0F0A63AEF02F0F0B0D7
:1004700097EF08F09DAC40EF02F09EBC9AEF08F0B9
:100480009DAA46EF02F09EBAC1EF06F00EC000F042
:100490000FC001F010C002F011C003F00CC0E9FF62
:1004A00007C0EAFF078E08C0E1FF09C0E2FF0AC0EB
:1004B000D9FF0BC0DAFF12C0F3FF13C0F4FF14C062
:1004C000FAFF15C0F5FF16C0F6FF17C0F7FF18C0FA
:1004D000F8FF19C0FBFF045006C0E0FF05C0D8FFBD
:1004E0001000F40FF66E040EF722000EF86E0900ED
:1004F000F5501200505F6F6E000000000882A000EF
:1005000000822000008A4CCCCD0000505F6F6666F0
:100510000000000982A00000822000008A4CCCCD9F
:10052000000044475F6F6E0000000A82A000008256
:100530002000008A4CCCCD000044475F6F66660007
:10054000000B82A00000822000008A4CCCCD00006D
:10055000535F6F6E000000000C82A000008220003C
:10056000008A4CCCCD0000535F6F66660000000D22
:1005700082A00000822000008A4CCCCD000053579E
:100580005F6F6E0000000E82A00000822000008AD3
:100590004CCCCD000053575F6F666600000F82A001
:1005A0000000822000008A4CCCCD000052475F6FD3
:1005B0006E0000001082A00000822000008A4CCC57
:1005C000CD000052475F6F666600001182A00000F8
:1005D000822000008A4CCCCD00004F470000000074
:1005E00000001282A00000822000008A4CCCCD00C6
:1005F0000052440000000000001382F000000000E0
:1006000000008A08888901054F44000000000000AE
:100610001483B80000000000008923D70A020642B4
:10062000420000000000001500000000845000009F
:10063000880FB82403070000000000000000160027
:10064000000000000000008A4CCCCD00000000003B
:1006500000000000001700000000000000008A4CAD
:10066000CCCD0000F76A780FF66E060EF722000E6A
:10067000F86E0900F5501200307000000000000014
:100680000888910000881100008460DAED040430CD
:100690006E00000000000009889100008811000031
:1006A0008460DAED040431700000000000000A8864
:1006B000910000881100008460DAED0404316E00BE
:1006C00000000000000B8891000088110000846089
:1006D000DAED040432700000000000000C88910084
:1006E00000881100008460DAED0404326E0000001E
:1006F0000000000D88910000881100008460DAED90
:10070000040433700000000000000E88910000888F
:100710001100008460DAED0404336E000000000074
:10072000000F88910000881100008460DAED040455
:10073000F76A440FF66E070EF722000EF86E0900F6
:10074000F55012003356334D000000001080333353
:100750003380733333745C4136335633000000000A
:1007600000058033333380733333745C4136355640
:100770005000000000000981100000813000007569
:1007800064C6C935564E00000000000881B0000064
:100790008190000075A7285A3556507061000000FE
:1007A0000381100000813000007564C6C935564EC3
:1007B00070610000000281B000008190000075A708
:1007C000285A313256500000000007823000008263
:1007D00050000076757E053132564E00000000064E
:1007E00082D0000082B0000076CAE22B3234564E2E
:1007F000000000000083D0000083B0000077C4A791
:10080000F135345650000000000183480000845C3C
:100810000000787CC8F1F76A2A0FF66E080EF722FE
:10082000000EF86E0900F55012008221126F73203D
:10083000EC25000000007381CD4E0000000073DC49
:1008400000DC000000007501614D8649570B7749B7
:10085000272E000000007381CD4E0000000073DCE5
:1008600000DC000000007501614DF76A7E0FF66E36
:10087000080EF722000EF86E0900F5501200616CA8
:100880006C00010E1C26D8B01D2AD8B41E2AD8B47C
:100890001F2A9E9046EF02F0696E694269617345B6
:1008A000726173650A00696E6942696173526561BC
:1008B000640A0000696E6942696173576970650A6C
:1008C0000000696E69426961734578706F73650AEB
:1008D0000000696E694269617349646C650A0000D1
:1008E000696E6942696173466173745265760A0084
:1008F000696E694F66667365740A0000696E6956B1
:100900002D5363616C6572730A00696E69373638FE
:10091000392D4F6666736574730A0000696E693716
:100920003638392D5363616C6572730A0000696E45
:100930006953657269616C4E756D730A0000535599
:1009400043434553530A00004F5554204F4620520D
:10095000414E47450A00535543434553530A00004F
:10096000494E56414C4944204348414E4E454C0A5D
:100970000000494E56414C4944204348414E4E45A3
:100980004C0A0000494E56414C4944204348414ED0
:100990004E454C0A0000494E56414C4944204348BC
:1009A000414E4E454C0A0000494E56414C494420A8
:1009B0004348414E4E454C0A0000494E56414C4971
:1009C00044204348414E4E454C0A00005355434392
:1009D0004553530A00004F5554204F462052414E74
:1009E00047450A00494E56414C4944204348414E30
:1009F0004E454C0A0000494E56414C49442043485C
:100A0000414E4E454C0A0000494E56414C49442047
:100A10004348414E4E454C0A0000494E56414C4910
:100A200044204348414E4E454C0A0000494E564131
:100A30004C4944204348414E4E454C0A0000494E23
:100A400056414C4944204348414E4E454C0A000013
:100A5000535543434553530A0000535543434553AD
:100A6000530A0000535543434553530A000053555E
:100A700043434553530A0000535543434553530AD8
:100A80000000535543434553530A00005355434315
:100A90004553530A0000494E56414C494420434FA8
:100AA0004D4D414E440A0000535543434553530AAC
:100AB0000000535543434553530A000053554343E5
:100AC0004553530A0000535543434553530A00000E
:100AD000535543434553530A00005355434345532D
:100AE000530A0000535543434553530A0000494EEF
:100AF00056414C494420504152414D455445520ABB
:100B00000000657261736500726561640000776959
:100B1000706500006578706F7365000069646C65CE
:100B200000006661737452657600756E6B6E6F7748
:100B30006E0A000046756E6374696F6E20446973B7
:100B400061626C65640A0000494E56414C4944207C
:100B5000504152414D455445520A000053554343BC
:100B60004553530A000046756E6374696F6E2044E6
:100B7000697361626C65640A0000494E56414C49D4
:100B800044204348414E4E454C0A000053554343D0
:100B90004553530A0000494E56414C4944205041A8
:100BA00052414D455445520A0000494E56414C4968
:100BB0004420504152414D455445520A0000494E8F
:100BC00056414C494420504152414D455445520AEA
:100BD0000000535543434553530A0000736C6F772D
:100BE0000000666173740000666173740000736CCA
:100BF0006F770000494E56414C4944204348414ECE
:100C00004E454C0A0000535543434553530A0000D8
:100C10004F5554204F462052414E47450A00494EF9
:100C200056414C4944204348414E4E454C0A000031
:100C3000494E56414C494420504152414D4554453E
:100C4000520A0000535543434553530A000053557D
:100C500043434553530A0000494E56414C494420F2
:100C6000504152414D455445520A0000494E5641AB
:100C70004C494420504152414D455445520A0000D0
:100C8000535543434553530A00005355434345537B
:100C9000530A0000535543434553530A000053552C
:100CA00043434553530A0000494E56414C494420A2
:100CB000504152414D455445520A00004255464666
:100CC0004552204F56455252554E0A005046532029
:100CD0004645452052657620323031373036313343
:100CE0002D30332C20636F70797269676874204AE5
:100CF00048550D0A00002566206D696E7574657390
:100D00002073696E63652072657365740A005355BC
:100D100043434553530A0000494E56414C49442031
:100D200052554E2053544154450053554343455367
:100D3000530A00004F5554204F462052414E47451C
:100D40000A00494E56414C494420434F4D4D414EB7
:100D5000440A00000201BE51C003F3CF01F0F4CFFA
:100D600000F0C103F3500026BF51C003F350002030
:100D7000026E0001120004009EA8FDD7AD6E90EF38
:100D800008F093988A889EAACDD1920E946E8B809B
:100D900004009EAAFDD7AECFB9F20201B951400AB4
:100DA00000010FE03E0A0DE0520AD8B487D0260AAF
:100DB000D8B4ECD0070AD8B446D12D0AD8B443D160
:100DC00045D10201B951400802E1309701D0308786
:100DD000BF6B66C1BEF2C16B510EC06F0001BADFBE
:100DE00002C0BCF201C0BBF2220E02010124E96E76
:100DF000000E0220EA6EEF50230802E1000E01D03F
:100E0000010EBD6FBF6B66C1BEF2C16B510EC06FEC
:100E10000001A0DF02C0BFF201C0BEF2220E02013B
:100E20000124E96E000E0220EA6EEF50020802E192
:100E3000000E01D0010EBD1140E0BF6B66C1BEF2D5
:100E4000C16B510EC06F000185DF220E020101242B
:100E5000E96E000E0220EA6E010EEF6EBA6BBA5117
:100E6000030827E3BF6B66C1BEF2C16B510EC06FB2
:100E7000000170DF02C0BCF201C0BBF2010E020132
:100E8000BB27000EBC23BF6BBAC2BEF2C16B140EEF
:100E9000C06F00015FDF01500201BB270250BC237D
:100EA000220EBB25E96E000EBC21EA6EEF6ABA2B5A
:100EB000D6D70101676B686B02012DD10201BF6BB0
:100EC00066C1BEF2C16B510EC06F000143DF02C0AC
:100ED000BCF201C0BBF2220E02010124E96E000E39
:100EE0000220EA6EEF2C51D001016751020833E372
:100EF0000201BF6B66C1BEF2C16B510EC06F000133
:100F000029DF02C0BCF201C0BBF2010E0201BB2707
:100F1000000EBC23BF6B67C1BEF2C16B140EC06F65
:100F2000000118DF01500201BB270250BC23010160
:100F300068510201BB25016E000EBC21036E0150F9
:100F4000220FE96E000E0320EA6EEF6A010E010126
:100F50006727686B19D00201BF6B66C1BEF2C16B17
:100F6000510EC06F0001F6DE220E02010124E96E6F
:100F7000000E0220EA6E020EEF6E010E01016627DE
:100F80006651030801E2666B0201C5D00201BF6B26
:100F900066C1BEF2C16B510EC06F0001DBDE02C044
:100FA000BCF201C0BBF2220E02010124E96E000E68
:100FB0000220EA6EEF2C46D0BF6B66C1BEF2C16B59
:100FC000510EC06F0001C6DE02C0BCF201C0BBF210
:100FD000010E0201BB27000EBC23BF6B67C1BEF22E
:100FE000C16B140EC06F0001B5DE01500201BB27BA
:100FF0000250BC23010168510201BB25016E000EA5
:10100000BC21036E0150220FE96E000E0320EA6E30
:10101000EF6ABF6B66C1BEF2C16B510EC06F0001BB
:1010200099DE220E02010124E96E000E0220EA6E12
:10103000230EEF6E010E010166276651030801E2DF
:10104000666B020168D0020166D000010201BF6B2D
:1010500066C1BEF2C16B510EC06F00017BDE02C0E3
:10106000BCF201C0BBF2220E02010124E96E000EA7
:101070000220EA6EEF2C4FD0BF6B66C1BEF2C16B8F
:10108000510EC06F000166DE02C0BCF201C0BBF2AF
:10109000010E0201BB27000EBC23BF6B67C1BEF26D
:1010A000C16B140EC06F000155DE01500201BB2759
:1010B0000250BC23010168510201BB25016E000EE4
:1010C000BC21036E0150220FE96E000E0320EA6E70
:1010D000B9C2EFFF01016851130803E3010E68274D
:1010E00019D00201BF6B66C1BEF2C16B510EC06F59
:1010F000000130DE220E02010124E96E000E022002
:10110000EA6E020EEF6E010E0101662766510308BA
:1011100001E2666B020130A703D0B95100012BD662
:10112000000131D693988A989E9A46EF02F0F0908B
:1011300046EF02F09E9C46EF02F050465320464593
:1011400045205265762032303137303631332D30FC
:10115000332C20636F70797269676874204A485530
:101160000D0A0000020EEA6E6A0EE96EEF5011E001
:101170000A0E016EBF0E006E0400002EFDD7012E78
:10118000F9D75E0E006E002EFED700D00400EF2EC1
:10119000EFD71200000E956E8C90956E8C82920E99
:1011A000946E8B84000E956E8C84956E8C96956EE5
:1011B0008C88956E8C9A956E8C9C956E8C8EF00EAC
:1011C000986E8F80010E02016A6F0001CBDF120062
:1011D000F00E986E8F90C9506FC2C9FFC730FEE302
:1011E000C9CF01F0C9506EC2C9FFC730FEE3C9CFF5
:1011F00000F0F00E986E8F801200C69A400EC76EF7
:10120000220EC66E6BC26FF26AC26EF2E1DF04009C
:101210001A0E006E002EFED7C69A400EC76E220E22
:10122000C66E6BC26FF26AC26EF2D2DF04001A0E93
:10123000006E002EFED7C69A400EC76E220EC66EF6
:101240006BC26FF26AC26EF2C3DF015001C06DF271
:1012500000C06CF202016CC201F06DC202F000012C
:1012600012008E0E006EAAC201F0A9C202F0036A3B
:10127000015209E102C001F0026A080E005E01524B
:1012800002E1006A08D0D89001BE04D002360136CF
:101290000006F9D7019E12000201A551D8B471D001
:1012A000006EA951D8B46DD0002604E3810E00264B
:1012B00068E204D07F0E005E64E363E0A6C2ADF294
:1012C000AA51AD1BA68FAA8FA851AC03F4CFAFF2E1
:1012D000A751AB03F4CF03F0F3CFAEF2AC03F3505E
:1012E000AF27F450AE23000E0322A851AB03F350F6
:1012F000AF27F450AE23000E026A03220222A65149
:10130000AC03F350AE27F4500322000E0222A65184
:10131000AB03F3500326F4500222000E016A0122AF
:10132000A851AA03F350AE27F4500322000E022264
:101330000122A751AA03F3500326F4500222000E03
:101340000122A651AA03F3500226F4500122002ADA
:1013500001BE05D0AE370336023601360006000E58
:10136000AEAF0AD0032A02220122015005E1025049
:1013700003E1035001E1002AADBF018EADAF019E34
:1013800004D0006A016A026A036A00011200800E3A
:10139000D8A202D00201AE1B0201B36BB46BAAC289
:1013A000B2F2AE51B21BA951D8B4DFD0B16F006E0A
:1013B000AD51D8B4E3D0B15FD8B483D03EE3AEC270
:1013C000B7F2B78FAFC2B6F2B0C2B5F2B46BD89075
:1013D000B733B633B533B433B12FF8D7B2AF03D088
:1013E000B381E0D0B391B191B389020EEA6EAC0E35
:1013F000E96EEBD0B399B2BF0AD0B1A113D0B73325
:10140000B633B533B433002AD8B4C7D00BD0B7BF86
:101410000CD0D890B437B537B637B7370006D8B444
:10142000BCD0F5D7B38D6DD0B39DAAC2B2F2AAAF2E
:1014300002D0B78FABD0B79FA9D0ADC2B1F2ADC2C9
:1014400000F0A951B15FAAC2B7F2B78FABC2B6F232
:10145000ACC2B5F2B46BD890B733B633B533B4334E
:10146000B12FF8D7B2AF03D0B3839CD0B393B1916F
:10147000B38B020EEA6EB00EE96EA7D0B39BB2BF7B
:101480000AD0B1A113D0B733B633B533B433002A81
:10149000D8B483D00BD0B7BF0CD0D890B437B53701
:1014A000B637B7370006D8B478D0F5D7B38F29D080
:1014B000B39FAEC2B2F2AEAF02D0B78F67D0B79FC4
:1014C00065D0AEC2B7F2B78FAFC2B6F2B0C2B5F256
:1014D000B2AF04D0B79FB38565D0B395B46BB1916B
:1014E000020EEA6EAC0EE96E70D0B2BF1CD0AAC27A
:1014F000B2F2B1A106D0B733B633B533B433002A54
:101500004CE0B4AF0BD0B52B09E1B62B07E1B72BFC
:1015100005E1B733B633B533002A3FE0B3BD84D716
:10152000B3BFC6D71CD0800EB71BB7AF04D03AD01C
:10153000AEC2B2F20AD0AAC2B2F2B75306E1B653B3
:1015400004E1B55302E1006A21D0B7BF08D0D890BA
:10155000B437B537B637B737002EF7D71ED0B2AF8E
:1015600002D0B78F13D0B79F11D0ADC200F0AEC27A
:10157000B7F2AFC2B6F2B0C2B5F208D0A9C200F05D
:10158000AAC2B7F2ABC2B6F2ACC2B5F2B7C201F0B2
:10159000B6C202F0B5C203F034D0006A016A026A32
:1015A000036A2FD0B46BB51FB61FB71FB41FB42B7F
:1015B00005E1B52B03E1B62B01E1B72BB3B112D78F
:1015C000B3B354D7B3B589D7B3D7EF50B52705E335
:1015D000B62B03E1B72BD8B4B181ED52EF50B6274B
:1015E00003E3B72BD8B4B181ED52EF50EFBE01D079
:1015F000800AB727D8B0B181B3B9FCD6B3BB3ED708
:1016000074D700011200D8905AC25BF202015A6BE3
:101610005B370001BFDD04001A0E006E002EFED7FE
:1016200002015B5180096B6F700E6B135A510409F4
:10163000646F6BC265F265C26BF264C26AF200014C
:10164000DCDD02C0AAF201C0A9F20BDE03C069F220
:1016500002C068F201C067F200C066F269C2A8F277
:1016600068C2A7F267C2A6F266C2A5F25FC2ACF278
:101670005EC2ABF25DC2AAF25CC2A9F20DDE03C08B
:1016800069F202C068F201C067F200C066F2D88257
:1016900069C2ACF268C2ABF267C2AAF266C2A9F232
:1016A00063C2B0F262C2AFF261C2AEF260C2ADF22A
:1016B0006EDE03C069F202C068F201C067F200C0CA
:1016C00066F266C200F067C201F068C202F069C249
:1016D00003F012005FDD640E02016A6F000142DD5B
:1016E000F00E0201406F040E3F6F416B4151040840
:1016F00010E35B6B5A6B5F6B5E6B5D6B7F0E5C6FB9
:10170000636B626B616B606B00017DDF0201412BDB
:10171000EDD700011200920E946E8B8002013C6B9B
:101720003C51030852E31B6AF2BE1B8EF29EBF6B54
:101730003CC2BEF2C16B510EC06F0001AAEC06F0B4
:101740001BBEF28E220E02010124E96E000E022061
:10175000EA6EEF6A3D6B3D51030835E31B6AF2BE4A
:101760001B8EF29EBF6B3CC2BEF2C16B510EC06FAE
:101770000001AAEC06F01BBEF28E02C03FF201C0CF
:101780003EF2010E02013E27000E3F231B6AF2BE0D
:101790001B8EF29EBF6B3DC2BEF2C16B140EC06FBA
:1017A0000001AAEC06F01BBEF28E015002013E279A
:1017B00002503F23220E3E25E96E000E3F21EA6EC5
:1017C000EF6A3D2BC8D73C2BABD70101666B676B2B
:1017D000686B696B9D8A000107EF4AF0010E0F01EB
:1017E000236F0F0E246FEF0E256FC196C198C18A2B
:1017F000C050C00B2E09C06EC08EC280000109EF20
:101800004AF00900F55212E0F6CF5AF2F7CF5BF238
:10181000F8CF5CF2F55004009EA8FDD7AD6E5AC219
:10182000F6FF5BC2F7FF5CC2F8FFEBD7120070C295
:1018300001F06FC200F00066012A0900F5CFEEFF4B
:10184000002EFBD7012EF9D7F86A1200F2CF48F22A
:10185000F29E030E636E62687F9C7F9E7F80615064
:10186000020148BFF28EFF08D8A478D3980EF66E16
:10187000080EF76E000EF86E0001C3DF02013F6B29
:10188000010E3E6FFE0E3D6F3C6B406B40517F087A
:1018900034E340513C25006E000E3D21016E000EE8
:1018A0003E21026E000E3F21036E02C0F8FF01C010
:1018B000F7FF00C0F6FF020EEA6E480EE96E706B8D
:1018C000010E6F6F0001B3DFF250006EF29E636A8B
:1018D00040C262FF48C261FF7F9C7F9E7F840F01F0
:1018E000550E7E6EAA0E7E6E7F827FB2FED77F94EB
:1018F0000050F2120201402BC9D7A60EF66E080E58
:10190000F76E000EF86E00017CDF02013F6B010EE6
:101910003E6F3D69800E3C6F406B40517F0837E35E
:10192000800E4025486F40513C25006E000E3D2141
:10193000016E000E3E21026E000E3F21036E02C0BA
:10194000F8FF01C0F7FF00C0F6FF020EEA6E490E75
:10195000E96E706B010E6F6F000169DFF250006E6F
:10196000F29E636A48C262FF49C261FF7F9C7F9E0C
:101970007F840F01550E7E6EAA0E7E6E7F827FB22F
:10198000FED77F940050F2120201402BC6D7B40E4E
:10199000F66E080EF76E000EF86E000132DF0201DF
:1019A0003F6B010E3E6FFE0E3D6F800E3C6F406B35
:1019B00040517F0839E34051486F010E496F405153
:1019C0003C25006E000E3D21016E000E3E21026E90
:1019D000000E3F21036E02C0F8FF01C0F7FF00C0F8
:1019E000F6FF020EEA6E4A0EE96E706B010E6F6F23
:1019F00000011DDFF250006EF29E49C263FF48C233
:101A000062FF4AC261FF7F9C7F9E7F840F01550E5B
:101A10007E6EAA0E7E6E7F827FB2FED77F940050CC
:101A2000F2120201402BC4D7C20EF66E080EF76EFA
:101A3000000EF86E0001E5DE02013F6B010E3E6F05
:101A40003D693C6B406B40517F083CE3800E402574
:101A5000486F010E496FD8B0492B40513C25006EAC
:101A6000000E3D21016E000E3E21026E000E3F2150
:101A7000036E02C0F8FF01C0F7FF00C0F6FF020EC0
:101A8000EA6E4A0EE96E706B010E6F6F0001CFDED9
:101A9000F250006EF29E49C263FF48C262FF4AC222
:101AA00061FF7F9C7F9E7F840F01550E7E6EAA0E84
:101AB0007E6E7F827FB2FED77F940050F2120201C9
:101AC000402BC1D7D20EF66E080EF76E000EF86EE0
:101AD000000197DE02013F6B010E3E6FFD0E3D6F70
:101AE000800E3C6F406B40517F0839E34051486F96
:101AF000020E496F40513C25006E000E3D21016EE3
:101B0000000E3E21026E000E3F21036E02C0F8FF60
:101B100001C0F7FF00C0F6FF020EEA6E4A0EE96E42
:101B2000706B010E6F6F000182DEF250006EF29E4C
:101B300049C263FF48C262FF4AC261FF7F9C7F9E29
:101B40007F840F01550E7E6EAA0E7E6E7F827FB25D
:101B5000FED77F940050F2120201402BC4D7E00E52
:101B6000F66E080EF76E000EF86E00014ADE0201F6
:101B70003F6B010E3E6FFD0E3D6F3C6B406B405165
:101B80007F083CE3800E4025486F020E496FD8B0B5
:101B9000492B40513C25006E000E3D21016E000E88
:101BA0003E21026E000E3F21036E02C0F8FF01C00D
:101BB000F7FF00C0F6FF020EEA6E4A0EE96E706B88
:101BC000010E6F6F000133DEF250006EF29E49C2CB
:101BD00063FF48C262FF4AC261FF7F9C7F9E7F8491
:101BE0000F01550E7E6EAA0E7E6E7F827FB2FED7EB
:101BF0007F940050F2120201402BC1D7F00EF66E16
:101C0000080EF76E000EF86E0001FBDD0201406B5E
:101C100040513F081DE34051486F030E496FF25099
:101C2000006EF29E49C263FF48C262FF616A7F9CF8
:101C30007F9E7F840F01550E7E6EAA0E7E6E7F8280
:101C40007FB2FED77F940050F2120201402BE0D702
:101C5000FC0EF66E080EF76E000EF86E0001D1DD78
:101C6000020E0201466F410E456F406B405109085C
:101C700056E34051150DF350496B486F110E48253E
:101C8000016E000E4921036E0150000198EC03F033
:101C90000900F5CF01F00900F5CF02F00900F5CFFA
:101CA00003F003C044F202C043F201C042F2E8CFA5
:101CB00041F20201476B475103082FE34051040DE5
:101CC000F350400F486F030E496FD8B0492B47516E
:101CD0004827000E492347514525E96E000E46214D
:101CE000EA6EEFCF4AF2F250006EF29E49C263FFF5
:101CF00048C262FF4AC261FF7F9C7F9E7F840F01C2
:101D0000550E7E6EAA0E7E6E7F827FB2FED77F94C6
:101D10000050F2120201472BCED7402BA7D70A0E54
:101D2000F66E090EF76E000EF86E00016ADD020114
:101D3000406B4051070852E34051080DF350496B86
:101D4000486F49C203F0485100010BEC04F0090050
:101D5000F5CF01F00900F5CF02F00900F5CF03F04F
:101D600003C044F202C043F201C042F2E8CF41F2A4
:101D70000201476B475103082FE34051040DF35014
:101D8000680F486F030E496FD8B0492B4751482759
:101D9000000E492347514525E96E000E4621EA6EA3
:101DA000EFCF4AF2F250006EF29E49C263FF48C282
:101DB00062FF4AC261FF7F9C7F9E7F840F01550EA8
:101DC0007E6EAA0E7E6E7F827FB2FED77F94005019
:101DD000F2120201472BCED7402BABD71C0EF66E6A
:101DE000090EF76E000EF86E00010BDD0201406B6C
:101DF0004051070856E34051080DF350496B486FB6
:101E0000040E4825016E000E4921036E01500001A9
:101E10000BEC04F00900F5CF01F00900F5CF02F05A
:101E20000900F5CF03F003C044F202C043F201C041
:101E300042F2E8CF41F20201476B475103082FE31A
:101E40004051040DF350880F486F030E496FD8B00E
:101E5000492B47514827000E492347514525E96E34
:101E6000000E4621EA6EEFCF4AF2F250006EF29E6B
:101E700049C263FF48C262FF4AC261FF7F9C7F9EE6
:101E80007F840F01550E7E6EAA0E7E6E7F827FB21A
:101E9000FED77F940050F2120201472BCED7402B81
:101EA000A7D72E0EF66E090EF76E000EF86E000123
:101EB000A8DCF250006EF29E030E636EAC0E626EF2
:101EC000616A7F9C7F9E7F840F01550E7E6EAA0EF5
:101ED0007E6E7F827FB2FED77F940050F212F2CFE7
:101EE00000F0F29E030E636EB00E626E616A7F9C1C
:101EF0007F9E7F84550E7E6EAA0E7E6E7F827FB29D
:101F0000FED77F940050F212F2CF00F0F29E030E43
:101F1000636EC40E626E616A7F9C7F9E7F84550EE5
:101F20007E6EAA0E7E6E7F827FB2FED77F940050B7
:101F3000F212F2CF00F0F29E030E636E6268616AE5
:101F40007F9C7F9E7F84550E7E6EAA0E7E6E7F8262
:101F50007FB2FED77F940050F212020100010CEF15
:101F60004AF002016FC2E9FF70C2EAFFEFCF73F2DD
:101F700072C203F071C2E9FF72C2EAFFEF50735DF3
:101F800015E170C203F06FC2E9FF03C0EAFFEF5230
:101F900003E1000E016E1FD070C203F06F516F2B72
:101FA000D8B4702B712BD8B4722BDCD770C203F06D
:101FB0006FC2E9FF70C2EAFFEFCF73F272C203F0A3
:101FC00071C2E9FF72C2EAFFEF50735D02E2FF0ED9
:101FD00001D0010E016E000112000201626B636B01
:101FE0005E51006E5F51016E6051026E02C0F8FFDB
:101FF00001C0F7FF00C0F6FF020EEA6E6C0EE96E3C
:10200000706B010E6F6F000112DC02016C5349E02E
:10201000636B6151635D2CE2036A6351640F016E6F
:10202000020E032201506C6F03C06DF263515E25F6
:10203000006E000E5F21016E000E6021026E02C074
:10204000F8FF01C0F7FF00C0F6FF020EEA6E6E0E49
:10205000E96E706B010E6F6F000117EC0CF06DC232
:10206000EAFF6CC2E9FF6EC2EFFF0201632BD1D71A
:10207000020E706F640E6F6F5DC272F25CC271F21D
:1020800000016FDF015205E1020162C201F00BD0D5
:1020900000010201622B61515E27000E5F23602365
:1020A0009FD7FF0E016E0001120002015E6B5E51B0
:1020B0000F083DE31B6AF2BE1B8EF29EBF6B5EC231
:1020C000BEF2C16B170EC06F0001AAEC06F01BBE7A
:1020D000F28E02C070F201C06FF202C072F201C053
:1020E00071F2020EEA6E5F0EE96E02C0F7FF0201A6
:1020F0000150000171EC02F00A000900F550EE6E8B
:102100000009FBE1020E0201706F5F0E6F6F5DC28E
:1021100072F25CC271F2000124DF015205E102019A
:102120005EC201F027D0000102015E2BC0D7020E73
:10213000EA6E670EE96E000E000135EC04F00A004D
:102140000900F550EE6E0009FBE1020E0201706F0E
:10215000670E6F6F5DC272F25CC271F2000101DF47
:10216000015205E1FE0E016E020104D00001FF0ED6
:10217000016E02010001120002019E51D8B4A5D0E7
:10218000AA6FA251D8B4A1D0AA5F05E37F0EAA27F7
:10219000D8B09BD006D0810EAA5FD8A096D0D8B474
:1021A00094D0AAC200F0016A026A036AA96B9FC2B6
:1021B000A8F2A88FA0C2A7F2A1C2A6F2190EAA6F18
:1021C000A551A65F0DE2010EA75F0AE2A85F08E233
:1021D000A95F06E2A92BA82BA72BA551A62728D0DB
:1021E000A451A75F12E2010EA85F0FE2A95F0DE202
:1021F000A92BA82BA451A727A551A62719E3A72BE4
:1022000017E1A82B15E1A92B13D0A3518009A85FD2
:102210000EE2010EA95F0BE2A92BA3518009A827AA
:10222000A451A727E9E3A82BE7E1A92BE5D7038071
:10223000AA2F01D00BD0D890A637A737A837A93737
:10224000D890033602360136AB37BAD7ABA106D0E9
:10225000D890013202320332AB3302D0000635E0AF
:10226000ABBF1ED0D890A637A737A837A937A5513E
:10227000A65F07E2010EA75F04E2A85F02E2A95F82
:102280001AE3A451A75F05E2010EA85F02E2A95F6D
:1022900012E3A3518009A85F03E2010EA95F0BE3DB
:1022A000032A09E1022A07E1012A05E1002A0DE0DB
:1022B0000132023203329FC2AAF2A351AA1BAAAF73
:1022C00002D0018E06D0019E04D0006A016A026A23
:1022D000036A000112000201546B536B526B7F0EB4
:1022E000516F586B576B566B556B59815993599574
:1022F0005B6B4D514E1105E1006A016A026A036A87
:1023000014D15B515B2B4D25E96E000E4E21EA6E18
:10231000EFCF5AF25A53D8B4CAD059A10FD05A515C
:1023200020080CE059915A512B0803E15993B3D07E
:1023300005D05A512D0802E15983ADD059B107D0CB
:102340005A512E0804E159B502D05985A4D059B18B
:102350009FD05A512F08D8B09BD05A513908D8A0D5
:1023600097D0300E5A5F59A556D054C2A8F253C226
:10237000A7F252C2A6F251C2A5F2AC6BAB6B200E13
:10238000AA6F820EA96F00014CEC09F003C054F251
:1023900002C053F201C052F200C051F20201AA6B16
:1023A0005AC2A9F2000131EC09F003C05FF202C089
:1023B0005EF201C05DF200C05CF203C0A1F202C097
:1023C000A0F201C09FF200C09EF254C2A5F253C217
:1023D000A4F252C2A3F251C2A2F2CEDED89258C2E7
:1023E000ACF257C2ABF256C2AAF255C2A9F203C070
:1023F000B0F202C0AFF201C0AEF200C0ADF2C7EC65
:1024000009F003C058F202C057F201C056F200C0F2
:1024100055F23CD00201A86BA76B200EA66F820E6E
:10242000A56F58C2ACF257C2ABF256C2AAF255C25F
:10243000A9F200014CEC09F003C05FF202C05EF2A9
:1024400001C05DF200C05CF20201AA6B5AC2A9F29F
:10245000000131EC09F0D8925FC2ACF25EC2ABF27F
:102460005DC2AAF25CC2A9F203C0B0F202C0AFF230
:1024700001C0AEF200C0ADF2C7EC09F003C058F2E3
:1024800002C057F201C056F200C055F205D0020159
:1024900059B101D00CD0000102015B515B2B4D25DD
:1024A000E96E000E4E21EA6EEFCF5AF233D759A3F0
:1024B0001AD0A86BA76B800EA66F7F0EA56F58C2AF
:1024C000ACF257C2ABF256C2AAF255C2A9F2000151
:1024D0004CEC09F003C058F202C057F201C056F2AA
:1024E00000C055F202014F51501117E05B530CE050
:1024F0005B074FC2E9FF50C2EAFF5B514D25EF6E0B
:10250000000E4E21EC6E09D04FC2E9FF50C2EAFF27
:102510004EC2ECFFED524DC2EFFF55C200F056C265
:1025200001F057C202F058C203F000011200A6C227
:10253000ADF20201AA51AD1BADAF05D0D894D89031
:10254000A6BFD8802FD0A6C2ADF2A9C2AEF2A551C7
:10255000AE5F06E0ADAF26D0D850010AD86E22D0CB
:10256000AAC2AEF2A651AE5F06E0ADAF1BD0D85006
:10257000010AD86E17D0ABC2AEF2A751AE5F06E02B
:10258000ADAF10D0D850010AD86E0CD0ACC2AEF2AC
:10259000A851AE5F06E0ADAF05D0D850010AD86EA5
:1025A00001D0D890000112008E0E006E0201A551DC
:1025B000005EA6C202F0A7C201F0028E005209E03E
:1025C000D890025202E1015204E002320132002EA0
:1025D000F7D7A6AF05D0011E021E012AD8B4022AE1
:1025E00000011200000E956E8C94036AC9506CC2F3
:1025F000C9FFC730FEE3C9CF02F0C9506BC2C9FFA3
:10260000C730FEE3C9CF01F0C9506AC2C9FFC73065
:10261000FEE3C9CF00F0000E956E8C8489EF13F0B5
:10262000000E956E8C98036AC9506CC2C9FFC73002
:10263000FEE3C9CF02F0C9506BC2C9FFC730FEE349
:10264000C9CF01F0C9506AC2C9FFC730FEE3C9CF84
:1026500000F0000E956E8C8889EF13F0000E956ED9
:102660008C9E036AC9506CC2C9FFC730FEE3C9CF54
:1026700002F0C9506BC2C9FFC730FEE3C9CF01F0F9
:10268000C9506AC2C9FFC730FEE3C9CF00F0000ECF
:10269000956E8C8E89EF13F00201696B62C268F24D
:1026A00064C267F263C266F26551000A000105E088
:1026B000010A12E0030A1FE02CD0C69A000EC76E72
:1026C000200EC66E69C26DF268C26CF267C26BF210
:1026D00066C26AF287D71DD0C69A000EC76E200E5A
:1026E000C66E69C26DF268C26CF267C26BF266C2F6
:1026F0006AF296D70ED0C69A000EC76E200EC66E2E
:1027000069C26DF268C26CF267C26BF266C26AF2AD
:10271000A5D71200020E02015F5F0CE3020EEA6E03
:102720005F0EE96EEF5006E003D000D000D0040049
:10273000EF2EFBD700011200CAEC08F0C00E020118
:102740005E6F5D515E275EC262F25BC264F25AC286
:1027500063F25CC265F200019FDF0400630E0201B8
:102760005F6F0001D7DF02015C51000A000105E044
:10277000010A16E0030A27E038D00400630E0201C4
:102780005F6F0001C7DF000E956E8C960400630E2C
:1027900002015F6F0001BEDF000E956E8C8625D0B2
:1027A0000400630E02015F6F0001B4DF000E956E3E
:1027B0008C9A0400630E02015F6F0001ABDF000E14
:1027C000956E8C8A12D00400630E02015F6F0001C7
:1027D000A1DF000E956E8C9C0400630E02015F6FFA
:1027E000000198DF000E956E8C8C1200010E020124
:1027F0004C6F4C510A0840E31B6AF2BE1B8EF29EDE
:10280000BF6B4CC2BEF2C16B170EC06F0001AAECC9
:1028100006F01BBEF28E02C051F201C050F2080E4B
:1028200002010124016E000E0220036E015003C05C
:10283000F7FF000171EC02F0E8CF4DF202014B51BD
:10284000100DF3504C25040DF350036A6E0FE96E22
:10285000010E0320EA6EEF6AEC6AEC6AEC6A7F0E06
:102860005B6FFC0E5A6F4BC25CF24DC25DF2000111
:1028700063DF02014C2BBDD70C0E4C6F4C510F087F
:1028800040E31B6AF2BE1B8EF29EBF6B4CC2BEF2CF
:10289000C16B170EC06F0001AAEC06F01BBEF28ED2
:1028A00002C051F201C050F2080E02010124016E73
:1028B000000E0220036E015003C0F7FF000171EC0F
:1028C00002F0E8CF4EF202014B51100DF3504C25AF
:1028D000040DF350036A6E0FE96E010E0320EA6ED9
:1028E000EF6AEC6AEC6AEC6A7F0E5B6FFC0E5A6F63
:1028F0004BC25CF24EC25DF200011EDF02014C2BA6
:10290000BDD7130E4F6F4B51100DF3500B0F040D2D
:10291000F350036A6E0FE96E010E0320EA6EEF6A50
:10292000EC6AEC6AEC6A7F0E5B6FFC0E5A6F4BC26E
:102930005CF24FC25DF20001FFDE12001B6AF2BEC4
:102940001B8EF29E0201BF6B69C1BEF2C16B510EBC
:10295000C06F0001AAEC06F01BBEF28E02C04CF262
:1029600001C04BF2010E02014B27000E4C23280E32
:102970004B25016E000E4C21036E0150220F016E9B
:10298000000E032201C04BF203C04CF203C05DF203
:1029900001C05CF2010E606FFB0E5F6F9A0E5E6FFE
:1029A000080E616F0001EDEC0FF001C040F2020172
:1029B00040510108D8A0E8D11B6AF2BE1B8EF29EDE
:1029C000BF6B69C1BEF2C16B510EC06F0001AAECB2
:1029D00006F01BBEF28E02C04CF201C04BF2010E9B
:1029E00002014B27000E4C23140E4B25016E000EE6
:1029F0004C21036E0150220F016E000E032201C014
:102A00004BF203C04CF203C05DF201C05CF2000166
:102A100055EC10F001C041F2020141510F08D8A05D
:102A200097D11B6AF2BE1B8EF29EBF6B41C2BEF2F3
:102A3000C16B170EC06F0001AAEC06F01BBEF28E30
:102A400002C04CF201C04BF2080E02010124016EDB
:102A5000000E0220036E015003C0F7FF000171EC6D
:102A600002F0016EE8CF42F21B6AF2BE1B8EF29EAC
:102A70000201BF6B69C1BEF2C16B510EC06F000194
:102A8000AAEC06F01BBEF28E02C04CF201C04BF263
:102A9000010E02014B27000E4C233C0E4B25016E0C
:102AA000000E4C21036E0150220F016E000E032216
:102AB00001C04BF203C04CF203C04EF201C04DF214
:102AC000506B4F6B000107DC03C046F202C045F2B9
:102AD00001C044F200C043F21B6AF2BE1B8EF29E9C
:102AE0000201BF6B41C2BEF2C16B170EC06F000185
:102AF000AAEC06F01BBEF28E02C04CF201C04BF2F3
:102B00000D0E02010124016E000E0220036E015021
:102B100003C0F7FF000171EC02F0006E0900F5CF71
:102B200001F00900F5CF02F00900F5CF03F046C22D
:102B3000A8F245C2A7F244C2A6F243C2A5F203C05E
:102B4000ACF202C0ABF201C0AAF2E8CFA9F2EFDC0E
:102B500002E2D8A4F3D01B6AF2BE1B8EF29E0201E1
:102B6000BF6B41C2BEF2C16B170EC06F0001AAEC71
:102B700006F01BBEF28E02C04CF201C04BF2090EF1
:102B800002010124016E000E0220036E015003C0F9
:102B9000F7FF000171EC02F0006E0900F5CF01F0C3
:102BA0000900F5CF02F00900F5CF03F003C0A8F249
:102BB00002C0A7F201C0A6F2E8CFA5F246C2ACF26D
:102BC00045C2ABF244C2AAF243C2A9F2B0DC02E2AF
:102BD000D8A4B4D002014051100DF3504125040D8A
:102BE000F350036A6E0FE96E010E0320EA6E43C2D2
:102BF000EFFF44C2ECFF45C2ECFF46C2ECFF1B6A8C
:102C0000F2BE1B8EF29EBF6B41C2BEF2C16B170EAD
:102C1000C06F0001AAEC06F01BBEF28E02C04CF29F
:102C200001C04BF2110E02010124016E000E0220C0
:102C3000036E015003C0F7FF000171EC02F00900C0
:102C4000F5CF01F00900F5CF02F00900F5CF03F050
:102C500003C04AF202C049F201C048F2E8CF47F28D
:102C600046C2A8F245C2A7F244C2A6F243C2A5F2E8
:102C70004AC2ACF249C2ABF248C2AAF247C2A9F2B8
:102C80004CEC09F003C046F202C045F201C044F228
:102C900000C043F20201A86BFE0EA76F7F0EA66F65
:102CA0008D0EA56F46C2ACF245C2ABF244C2AAF289
:102CB00043C2A9F200013BDC04E302013F693E6923
:102CC0002AD046C2A8F245C2A7F244C2A6F243C225
:102CD000A5F20201AC6BFE0EAB6FAA698D0EA96F57
:102CE000000125DC05E302013F6B3E6B14D00001BF
:102CF00046C2A8F245C2A7F244C2A6F243C2A5F258
:102D000053DC02C003F00150800E032601C03EF2E6
:102D1000020103C03FF23FC25BF23EC25AF240C220
:102D20005CF242C25DF2000107DD3E0EF66E090E56
:102D3000F76E000EF86E01EC0CF008D0480EF66E3F
:102D4000090EF76E000EF86E01EC0CF01BD00201BC
:102D50004151FE080EE140C24BF2000147DD560E24
:102D6000F66E090EF76E000EF86E01EC0CF00AD04C
:102D70000201600EF66E090EF76E000EF86E00018D
:102D800001EC0CF00AD00201720EF66E090EF76E1D
:102D9000000EF86E000101EC0CF014EF49F0020196
:102DA0006751B608676F036A68C26BF2688FD89084
:102DB000683369336A330332023201320032672FDB
:102DC000F6D76BAF0BD0001E011E021E031E002A99
:102DD000D8B4012AD8B4022AD8B4032A000167EF74
:102DE00017F0D8B204D0020EEA6E6F0EE96E006AD8
:102DF000016A026A036A02016F6B706B716B726B1E
:102E00006E516D116C116B112CE0200E736FD89008
:102E10006737683769376A376F3770377137723796
:102E20006E51725D08E16D51715D05E16C51705D2F
:102E300002E16B516F5D0FE36B516F5F6C51D8A076
:102E40006C3D705F6D51D8A06D3D715F6E51D8A023
:102E50006E3D725FD8800036013602360336732F1E
:102E6000D6D76FC2EFFF70C2ECFF71C2ECFF72C227
:102E7000ECFF00011200E95002015F6F5E51616FCB
:102E80001CE05DC2A8F25CC2A7F25BC2A6F25AC205
:102E9000A5F2AC6BAB6B200EAA6F820EA96F00017E
:102EA0004CEC09F003C05DF202C05CF201C05BF2C1
:102EB00000C05AF20201612FE4D75DC26AF25CC21F
:102EC00069F25BC268F25AC267F2000168D703C0B8
:102ED0005DF202C05CF201C05BF200C05AF2020176
:102EE0005DAF0DD05F075F8B5A1F5B1F5C1F5D1FBF
:102EF0005A2BD8B45B2BD8B45C2BD8B45D2B3B0ECB
:102F0000666F9A0E656FCA0E646F636B0A0E616F0F
:102F10005E51D8B45F2BD882020EEA6E5A0EE96E6B
:102F20005DC26AF25CC269F25BC268F25AC267F2C1
:102F300066C26EF265C26DF264C26CF263C26BF27D
:102F400000014FDF0150005213E102015E29615D73
:102F5000D8A402D000010CD05F510DE00F0B615DD1
:102F600001E040E25FBF3ED05FBD05D0200E34D00F
:102F7000200E02015F175FAB0ED05F9B5E51D8A49D
:102F80005F0700505F6F2D0E04009EA8FDD7AD6E49
:102F90005F51006E5F6B5E51615D0CE100505F6FD1
:102FA0002E0E04009EA8FDD7AD6E5F51006E200E60
:102FB0005F17000E300E5FAB0FD05F9B5E51D8A441
:102FC0005F0700505F6F2D0E04009EA8FDD7AD6E09
:102FD0005F51006E5F6B300E0026005004009EA80B
:102FE000FDD7AD6ED89266C26AF265C269F264C25C
:102FF00068F263C267F26E6B6D6B6C6B0A0E6B6F7F
:103000000001EFDE03C066F202C065F201C064F2A7
:1030100000C063F20201612F7ED7000112001B6A1B
:10302000F2BE1B8EF29E0201BF6B69C1BEF2C16B84
:10303000510EC06F0001AAEC06F01BBEF28E02C05A
:1030400041F201C040F2010E02014027000E41236F
:10305000280E4025016E000E4121036E0150220F03
:10306000016E000E032201C040F203C041F203C012
:103070005DF201C05CF2010E606FFB0E5F6F9A0E95
:103080005E6F080E616F0001EDEC0FF001C03DF2C4
:1030900002013D510108D8A08DD01B6AF2BE1B8EE3
:1030A000F29EBF6B69C1BEF2C16B510EC06F0001D1
:1030B000AAEC06F01BBEF28E02C041F201C040F243
:1030C000010E02014027000E4123140E4025016E1F
:1030D000000E4121036E0150220F016E000E0322EB
:1030E00001C040F203C041F203C05DF201C05CF2D6
:1030F000000155EC10F001C03EF202013E51FF0A02
:10310000000103E0010A0AE033D0840EF66E090ED6
:10311000F76E000EF86E01EC0CF04AD002013F6B26
:103120003F510C0822E33D51100DF3503F25040D93
:10313000F350036A6E0FE96E010E0320EA6EEFCFC3
:103140005AF2ECCF5BF2ECCF5CF2ECCF5DF2890E81
:10315000E96E020E5E6F00018EDE2C0E04009EA84A
:10316000FDD7AD6E02013F2BDBD70D0E3E6F000188
:1031700002013D51100DF3503E25040DF350036A3A
:103180006E0FE96E010E0320EA6EEFCF5AF2ECCF1C
:103190005BF2ECCF5CF2ECCF5DF2890EE96E020ED1
:1031A0005E6F000168DE0A0E04009EA8FDD7AD6EBA
:1031B0000AD00201960EF66E090EF76E000EF86E3A
:1031C000000101EC0CF014EF49F002015A51040D1A
:1031D000F350680F5B6F030E5C6FD8B05C2B606BB5
:1031E0005F6B5E6B5D6B020E626F5D0E616F636B9A
:1031F000635103081CE363516125E96E000E6221EF
:10320000EA6E63515B25666F000E5C21676FF2CF3B
:1032100068F2F29E67C263FF66C262FF7F9C7F9E78
:103220007F80615068BFF28EEF6E632BE1D75DC285
:1032300000F05EC201F05FC202F060C203F0000164
:10324000120002015A51040DF350880F5B6F030EF8
:103250005C6FD8B05C2B606B5F6B5E6B5D6B020E5E
:10326000626F5D0E616F636B635103081CE3635112
:103270006125E96E000E6221EA6E63515B25666F7F
:10328000000E5C21676FF2CF68F2F29E67C263FFA7
:1032900066C262FF7F9C7F9E7F80615068BFF28E16
:1032A000EF6E632BE1D75DC200F05EC201F05FC23A
:1032B00002F060C203F000011200CAEC08F00C0E2C
:1032C00002015F6F5C530BE15FC262F2646B636B80
:1032D000010E656F00014CEC13F00BD002015C2D68
:1032E00009D05FC262F2646B636B656B00014CECEA
:1032F00013F002010001CAEC08F0010E02016A6F2E
:103300000001B2EC08F002015D512009606F5EC25D
:1033100061F25FC262F261C264F260C263F25CC2D7
:1033200065F200014CEC13F0010E02016A6F00011E
:10333000B2EC08F012001B6AF2BE1B8EF29E020174
:10334000BF6B69C1BEF2C16B510EC06F0001AAEC28
:1033500006F01BBEF28E02C05BF201C05AF2010EF3
:1033600002015A27000E5B23280E5A25016E000E1B
:103370005B21036E0150220F016E000E032201C07B
:103380005AF203C05BF203C05DF201C05CF2010EB1
:10339000606FFB0E5F6F9A0E5E6F080E616F00012B
:1033A000EDEC0FF001C03DF202013D510108D8A043
:1033B0008FD11B6AF2BE1B8EF29EBF6B69C1BEF23B
:1033C000C16B510EC06F0001AAEC06F01BBEF28E5D
:1033D00002C05BF201C05AF2010E02015A27000E30
:1033E0005B23140E5A25016E000E5B21036E015003
:1033F000220F016E000E032201C05AF203C05BF2DD
:1034000003C05DF201C05CF2000155EC10F001C098
:103410003EF202013E51FF0A000103E0010A0AE008
:10342000B4D0A80EF66E090EF76E000EF86E01EC21
:103430000CF04CD102013F6B3F510C08D8A0A2D038
:103440001B6AF2BE1B8EF29EBF6B3FC2BEF2C16B07
:10345000170EC06F0001AAEC06F01BBEF28E02C070
:103460005BF201C05AF2150E02010124016E000E3A
:103470000220036E015003C0F7FF000171EC02F05F
:10348000E8CF40F202013D2D24D01B6AF2BE1B8E14
:10349000F29EBF6B3FC2BEF2C16B170EC06F000140
:1034A000AAEC06F01BBEF28E02C05BF201C05AF21B
:1034B000160E02010124016E000E0220036E01505F
:1034C00003C0F7FF000171EC02F0016EE8CF40F29B
:1034D000020140C25AF2000178DE03C044F202C089
:1034E00043F201C042F200C041F240C25AF2A9DEEA
:1034F00003C048F202C047F201C046F200C045F2E4
:1035000002015B6B3FC25AF23DC25CF25BC25EF2EB
:103510003FC25DF20001D1DE02015B6B40C25AF294
:1035200048C25FF247C25EF246C25DF245C25CF23B
:1035300044C263F243C262F242C261F241C260F22B
:10354000000103EC0BF003C04CF202C04BF201C0CF
:103550004AF200C049F2890EE96E4CC25DF24BC2DC
:103560005CF24AC25BF249C25AF2020E02015E6F7D
:10357000000181DC2C0E04009EA8FDD7AD6E020177
:103580003F2B5AD70D0E3E6F00011B6AF2BE1B8EF9
:10359000F29E0201BF6B3EC2BEF2C16B170EC06F3E
:1035A0000001AAEC06F01BBEF28E02C05BF201C065
:1035B0005AF2150E02010124016E000E0220036E64
:1035C000015003C0F7FF000171EC02F0E8CF4DF2AB
:1035D00002013D2D24D01B6AF2BE1B8EF29EBF6BF2
:1035E0003EC2BEF2C16B170EC06F0001AAEC06F01E
:1035F0001BBEF28E02C05BF201C05AF2160E02012F
:103600000124016E000E0220036E015003C0F7FF7B
:10361000000171EC02F0016EE8CF4DF202014DC2E3
:103620005AF20001D2DD03C051F202C050F201C0D3
:103630004FF200C04EF24DC25AF203DE03C055F203
:1036400002C054F201C053F200C052F202015B6B9F
:103650003EC25AF23DC25CF25BC25EF23EC25DF215
:1036600000012BDE02015B6B4DC25AF255C25FF2C4
:1036700054C25EF253C25DF252C25CF251C263F2B6
:1036800050C262F24FC261F24EC260F2000103EC1E
:103690000BF003C059F202C058F201C057F200C04B
:1036A00056F2890EE96E59C25DF258C25CF257C2F9
:1036B0005BF256C25AF2020E02015E6F00013BEC51
:1036C00017F00A0E04009EA8FDD7AD6E0AD00201C5
:1036D000BA0EF66E090EF76E000EF86E000101ECE0
:1036E0000CF014EF49F002015E6B5E5107082AE30B
:1036F0005E51170DF350706B6F6F716F020EEA6EB3
:103700005F0EE96E6F51000132EC03F00A00090010
:10371000F550EE6E0009FBE1020E0201706F5F0EC4
:103720006F6F5DC272F25CC271F20001B1EC0FF01A
:10373000015205E102015EC201F028D00001020140
:103740005E2BD3D7020EEA6E670EE96E000E000103
:1037500035EC04F00A000900F550EE6E0009FBE1BB
:10376000020E0201706F670E6F6F5DC272F25CC273
:1037700071F20001B1EC0FF0015205E1FE0E016E95
:10378000020104D00001FF0E016E020100011200CF
:103790001B6AF2BE1B8EF29E0201BF6B69C1BEF2B4
:1037A000C16B510EC06F0001AAEC06F01BBEF28E79
:1037B00002C04CF201C04BF2010E02014B27000E79
:1037C0004C23280E4B25016E000E4C21036E015038
:1037D000220F016E000E032201C04BF203C04CF217
:1037E00003C05DF201C05CF2010E606FFB0E5F6F03
:1037F000460E5E6F080E616F0001EDEC0FF001C028
:1038000040F2020140510108D8A09CD11B6AF2BECF
:103810001B8EF29EBF6B69C1BEF2C16B510EC06FB1
:103820000001AAEC06F01BBEF28E02C04CF201C0F1
:103830004BF2010E02014B27000E4C23140E4B25B8
:10384000016E000E4C21036E0150220F016E000E1E
:10385000032201C04BF203C04CF203C05DF201C071
:103860005CF2000140DF01C041F202014151070852
:10387000D8A05DD14151170DF3504C6B4B6F080E22
:103880004B25016E000E4C21036E0150000132ECFD
:1038900003F0E8CF42F202014051080DF3504227F5
:1038A0001B6AF2BE1B8EF29EBF6B69C1BEF2C16B7A
:1038B000510EC06F0001AAEC06F01BBEF28E02C0D2
:1038C0004CF201C04BF2010E02014B27000E4C23BB
:1038D0003C0E4B25016E000E4C21036E0150220F51
:1038E000016E000E032201C04BF203C04CF203C074
:1038F0004EF201C04DF2506B4F6B00016BEC11F0BA
:1039000003C046F202C045F201C044F200C043F2D7
:1039100002014051170DF3504C6B4B6F0D0E4B25B0
:10392000016E000E4C21036E0150000132EC03F0D9
:10393000006E0900F5CF01F00900F5CF02F0090093
:10394000F5CF03F046C2A8F245C2A7F244C2A6F2E0
:1039500043C2A5F203C0ACF202C0ABF201C0AAF2AE
:10396000E8CFA9F297EC12F002E2D8A4D6D0020177
:103970004151170DF3504C6B4B6F090E4B25016EE7
:10398000000E4C21036E0150000132EC03F0006E7A
:103990000900F5CF01F00900F5CF02F00900F5CFDD
:1039A00003F003C0A8F202C0A7F201C0A6F2E8CF5C
:1039B000A5F246C2ACF245C2ABF244C2AAF243C27F
:1039C000A9F297EC12F002E2D8A4A7D0020140516C
:1039D000080DF3504125040DF350036AEE0FE96E14
:1039E000010E0320EA6E43C2EFFF44C2ECFF45C262
:1039F000ECFF46C2ECFF4151170DF3504C6B4B6F7F
:103A0000110E4B25016E000E4C21036E015000017A
:103A100032EC03F00900F5CF01F00900F5CF02F018
:103A20000900F5CF03F003C04AF202C049F201C019
:103A300048F2E8CF47F246C2A8F245C2A7F244C214
:103A4000A6F243C2A5F24AC2ACF249C2ABF248C2E6
:103A5000AAF247C2A9F24CEC09F003C046F202C038
:103A600045F201C044F200C043F20201A86BFE0E11
:103A7000A76F7F0EA66F8D0EA56F46C2ACF245C232
:103A8000ABF244C2AAF243C2A9F2000197EC12F0D1
:103A900004E302013F693E692CD046C2A8F245C248
:103AA000A7F244C2A6F243C2A5F20201AC6BFE0E1D
:103AB000AB6FAA698D0EA96F000197EC12F005E3B8
:103AC00002013F6B3E6B15D0000146C2A8F245C211
:103AD000A7F244C2A6F243C2A5F2D4EC12F002C08F
:103AE00003F00150800E032601C03EF2020103C024
:103AF0003FF23FC25BF23EC25AF2020E5C6F42C21C
:103B00005DF200019CEC13F0CC0EF66E090EF76E20
:103B1000000EF86E01EC0CF008D0D60EF66E090E11
:103B2000F76E000EF86E01EC0CF00AD00201E40E04
:103B3000F66E090EF76E000EF86E000101EC0CF047
:103B40000AD00201F60EF66E090EF76E000EF86E40
:103B5000000101EC0CF014EF49F01B6AF2BE1B8E61
:103B6000F29E0201BF6B69C1BEF2C16B510EC06F04
:103B70000001AAEC06F01BBEF28E02C042F201C0A8
:103B800041F2010E02014127000E4223280E412579
:103B9000016E000E4221036E0150220F016E000ED5
:103BA000032201C041F203C042F203C05DF201C032
:103BB0005CF2010E606FFB0E5F6F460E5E6F080ECB
:103BC000616F0001EDEC0FF001C03EF202013E51C9
:103BD0000108D8A08ED01B6AF2BE1B8EF29EBF6B6E
:103BE00069C1BEF2C16B510EC06F0001AAEC06F0B4
:103BF0001BBEF28E02C042F201C041F2010E020170
:103C00004127000E4223140E4125016E000E422171
:103C1000036E0150220F016E000E032201C041F21B
:103C200003C042F203C05DF201C05CF200015BDD43
:103C300001C03FF202013F51FF0A000103E0010A07
:103C40000AE034D0080EF66E0A0EF76E000EF86E1B
:103C500001EC0CF04CD00201406B4051060823E30C
:103C60003E51080DF3504025040DF350036AEE0F4A
:103C7000E96E010E0320EA6EEFCF5AF2ECCF5BF251
:103C8000ECCF5CF2ECCF5DF2890EE96E020E5E6F56
:103C900000013BEC17F02C0E04009EA8FDD7AD6E82
:103CA0000201402BDAD7070E3F6F000102013E519F
:103CB000080DF3503F25040DF350036AEE0FE96E33
:103CC000010E0320EA6EEFCF5AF2ECCF5BF2ECCF9D
:103CD0005CF2ECCF5DF2890EE96E020E5E6F0001C0
:103CE0003BEC17F00A0E04009EA8FDD7AD6E0AD07B
:103CF00002011A0EF66E0A0EF76E000EF86E000143
:103D000001EC0CF014EF49F01B6AF2BE1B8EF29E20
:103D10000201BF6B69C1BEF2C16B510EC06F0001E1
:103D2000AAEC06F01BBEF28E02C05BF201C05AF292
:103D3000010E02015A27000E5B23280E5A25016E40
:103D4000000E5B21036E0150220F016E000E032254
:103D500001C05AF203C05BF203C05DF201C05CF225
:103D6000010E606FFB0E5F6F460E5E6F080E616F97
:103D70000001EDEC0FF001C03DF202013D510108E0
:103D8000D8A02DD11B6AF2BE1B8EF29EBF6B69C1FB
:103D9000BEF2C16B510EC06F0001AAEC06F01BBE53
:103DA000F28E02C05BF201C05AF2010E02015A27E4
:103DB000000E5B23140E5A25016E000E5B21036E6C
:103DC0000150220F016E000E032201C05AF203C0FF
:103DD0005BF203C05DF201C05CF2000184DC01C053
:103DE0003EF202013E51FF0A000103E0010A0AE02F
:103DF00084D02C0EF66E0A0EF76E000EF86E01ECF3
:103E00000CF0EBD002013F6B3F51060873E33F51CA
:103E1000170DF3505B6B5A6F150E5A25016E000E8D
:103E20005B21036E0150000132EC03F0016EE8CF1C
:103E300040F240C25AF2E5EC18F003C044F202C06E
:103E400043F201C042F200C041F240C25AF221ECFA
:103E500019F003C048F202C047F201C046F200C0A8
:103E600045F202013D51080DF3503F253E6F5B6B5B
:103E70003EC25AF2020E5C6F5BC25EF23EC25DF25F
:103E800000015DEC19F002015B6B40C25AF248C2BE
:103E90005FF247C25EF246C25DF245C25CF244C2C6
:103EA00063F243C262F242C261F241C260F20001B7
:103EB00003EC0BF003C04CF202C04BF201C04AF21B
:103EC00000C049F2890EE96E4CC25DF24BC25CF251
:103ED0004AC25BF249C25AF2020E02015E6F000151
:103EE0003BEC17F02C0E04009EA8FDD7AD6E02012E
:103EF0003F2B8AD7070E3E6F000102013E51170D7E
:103F0000F3505B6B5A6F150E5A25016E000E5B2144
:103F1000036E0150000132EC03F0016EE8CF4DF268
:103F20004DC25AF2E5EC18F003C051F202C050F253
:103F300001C04FF200C04EF24DC25AF221EC19F00E
:103F400003C055F202C054F201C053F200C052F255
:103F500002013D51080DF3503E275B6B3EC25AF201
:103F6000020E5C6F5BC25EF23EC25DF200015DEC70
:103F700019F002015B6B4DC25AF255C25FF254C296
:103F80005EF253C25DF252C25CF251C263F250C2A1
:103F900062F24FC261F24EC260F2000103EC0BF01C
:103FA00003C059F202C058F201C057F200C056F2E5
:103FB000890EE96E59C25DF258C25CF257C25BF2DB
:103FC00056C25AF2020E02015E6F00013BEC17F07E
:103FD0000A0E04009EA8FDD7AD6E0AD002013E0E67
:103FE000F66E0A0EF76E000EF86E000101EC0CF092
:103FF00014EF49F002013E53D8A413D13F510308F6
:10400000D8A40FD1406B40513F0824E3010E576FF5
:10401000EE0E566F40515625016E000E5721036E6D
:104020000150E96E03C0EAFF40513E25586F000E73
:104030003F21596FF2CF5AF2F29E59C263FF58C224
:1040400062FF7F9C7F9E7F8061505ABFF28EEF6E31
:10405000402BD9D7406B405107086DE34051170DF5
:10406000F350576B566F080E5625016E000E572100
:10407000036E0150000132EC03F0016EE8CF41F213
:1040800002014051170DF350576B566F110E562514
:10409000016E000E5721036E0150000132EC03F057
:1040A000006E0900F5CF01F00900F5CF02F009001C
:1040B000F5CF03F003C0A8F202C0A7F201C0A6F238
:1040C000E8CFA5F202014051040DF350036AEE0F50
:1040D000E96E010E0320EA6EEFCFA9F2ECCF01F0FA
:1040E000ECCF02F0ECCF03F003C0ACF202C0ABF2B5
:1040F00001C0AAF200014CEC09F003C0A8F202C012
:10410000A7F201C0A6F200C0A5F2D4EC12F001C0E3
:1041100042F20201800E0224436F43C25BF242C2AC
:104120005AF2020E5C6F41C25DF200019CEC13F08A
:104130000201402B90D7406B4051070871E340517A
:10414000170DF350576B566F080E5625016E000E73
:104150005721036E0150000132EC03F0016EE8CFED
:1041600044F202014051170DF350576B566F110E78
:104170005625016E000E5721036E0150000132ECEE
:1041800003F0006E0900F5CF01F00900F5CF02F051
:104190000900F5CF03F003C0A8F202C0A7F201C0E6
:1041A000A6F2E8CFA5F2080E02014025040DF35057
:1041B000036AEE0FE96E010E0320EA6EEFCFA9F25B
:1041C000ECCF01F0ECCF02F0ECCF03F003C0ACF287
:1041D00002C0ABF201C0AAF200014CEC09F003C02E
:1041E000A8F202C0A7F201C0A6F200C0A5F2D4EC6A
:1041F00012F001C045F20201800E0224466F080E43
:104200004425566F46C25BF245C25AF2020E5C6FFD
:1042100056C25DF200019CEC13F00201402B8CD7DA
:10422000D9D2406B40517F0824E3010E576F6E0EC8
:10423000566F40515625016E000E5721036E0150F6
:10424000E96E03C0EAFF40513E25586F000E3F2142
:10425000596FF2CF5AF2F29E59C263FF58C262FF01
:104260007F9C7F9E7F8061505ABFF28EEF6E402B05
:10427000D9D7130E476F890EA86F880EA76F080E47
:10428000A66F8A0EA56F9DC1ACF29CC1ABF29BC11B
:10429000AAF29AC1A9F200014CEC09F003C0A8F2FD
:1042A00002C0A7F201C0A6F200C0A5F2D4EC12F041
:1042B00001C048F20201800E0224496F49C25BF23C
:1042C00048C25AF25C6B47C25DF200019CEC13F0ED
:1042D000890E0201A86F880EA76F080EA66F8A0EBE
:1042E000A56FDDC1ACF2DCC1ABF2DBC1AAF2DAC171
:1042F000A9F200014CEC09F003C0A8F202C0A7F239
:1043000001C0A6F200C0A5F2D4EC12F001C048F240
:104310000201800E0224496F49C25BF248C25AF280
:10432000010E5C6F47C25DF200019CEC13F00201CC
:10433000406B40510A08D8A08ED01B6AF2BE1B8E7B
:10434000F29EBF6B40C2BEF2C16B170EC06F000180
:10435000AAEC06F01BBEF28E02C057F201C056F264
:10436000080E02010124016E000E0220036E0150AE
:1043700003C0F7FF000171EC02F0016EE8CF4AF2D2
:104380001B6AF2BE1B8EF29E0201BF6B40C2BEF2E0
:10439000C16B170EC06F0001AAEC06F01BBEF28EB7
:1043A00002C057F201C056F2110E02010124016E43
:1043B000000E0220036E015003C0F7FF000171ECF4
:1043C00002F0006E0900F5CF01F00900F5CF02F010
:1043D0000900F5CF03F003C0A8F202C0A7F201C0A4
:1043E000A6F2E8CFA5F202014051040DF350036A92
:1043F0006E0FE96E010E0320EA6EEFCFA9F2ECCF4B
:1044000001F0ECCF02F0ECCF03F003C0ACF202C03D
:10441000ABF201C0AAF200014CEC09F003C0A8F213
:1044200002C0A7F201C0A6F200C0A5F2D4EC12F0BF
:1044300001C04BF20201800E02244C6F4CC25BF2B1
:104440004BC25AF25C6B4AC25DF200019CEC13F065
:104450000201402B6ED70C0E406F40510F08D8A0C0
:104460008ED01B6AF2BE1B8EF29EBF6B40C2BEF2A4
:10447000C16B170EC06F0001AAEC06F01BBEF28ED6
:1044800002C057F201C056F2080E02010124016E6B
:10449000000E0220036E015003C0F7FF000171EC13
:1044A00002F0016EE8CF4DF21B6AF2BE1B8EF29E47
:1044B0000201BF6B40C2BEF2C16B170EC06F00019C
:1044C000AAEC06F01BBEF28E02C057F201C056F2F3
:1044D000110E02010124016E000E0220036E015034
:1044E00003C0F7FF000171EC02F0006E0900F5CF88
:1044F00001F00900F5CF02F00900F5CF03F003C089
:10450000A8F202C0A7F201C0A6F2E8CFA5F202010C
:104510004051040DF350036A6E0FE96E010E032043
:10452000EA6EEFCFA9F2ECCF01F0ECCF02F0ECCFC6
:1045300003F003C0ACF202C0ABF201C0AAF200016A
:104540004CEC09F003C0A8F202C0A7F201C0A6F229
:1045500000C0A5F2D4EC12F001C04EF20201800EB0
:1045600002244F6F4FC25BF24EC25AF25C6B4DC2D7
:104570005DF200019CEC13F00201402B6ED7406B02
:1045800040510A08D8A090D01B6AF2BE1B8EF29E42
:10459000BF6B40C2BEF2C16B170EC06F0001AAEC28
:1045A00006F01BBEF28E02C057F201C056F2080E92
:1045B00002010124016E000E0220036E015003C0AF
:1045C000F7FF000171EC02F0016EE8CF50F21B6AB8
:1045D000F2BE1B8EF29E0201BF6B40C2BEF2C16BE7
:1045E000170EC06F0001AAEC06F01BBEF28E02C0CF
:1045F00057F201C056F2110E02010124016E000EA5
:104600000220036E015003C0F7FF000171EC02F0BD
:10461000006E0900F5CF01F00900F5CF02F00900A6
:10462000F5CF03F003C0A8F202C0A7F201C0A6F2C2
:10463000E8CFA5F2100E02014025040DF350036AE5
:104640006E0FE96E010E0320EA6EEFCFA9F2ECCFF8
:1046500001F0ECCF02F0ECCF03F003C0ACF202C0EB
:10466000ABF201C0AAF200014CEC09F003C0A8F2C1
:1046700002C0A7F201C0A6F200C0A5F2D4EC12F06D
:1046800001C051F20201800E0224526F52C25BF24D
:1046900051C25AF2010E5C6F50C25DF200019CECF7
:1046A00013F00201402B6CD70C0E406F40510F08E5
:1046B000D8A090D01B6AF2BE1B8EF29EBF6B40C288
:1046C000BEF2C16B170EC06F0001AAEC06F01BBE54
:1046D000F28E02C057F201C056F2080E0201012408
:1046E000016E000E0220036E015003C0F7FF0001AF
:1046F00071EC02F0016EE8CF53F21B6AF2BE1B8E22
:10470000F29E0201BF6B40C2BEF2C16B170EC06FBA
:104710000001AAEC06F01BBEF28E02C057F201C0E7
:1047200056F2110E02010124016E000E0220036EEA
:10473000015003C0F7FF000171EC02F0006E0900A8
:10474000F5CF01F00900F5CF02F00900F5CF03F035
:1047500003C0A8F202C0A7F201C0A6F2E8CFA5F2FA
:10476000100E02014025040DF350036A6E0FE96E2E
:10477000010E0320EA6EEFCFA9F2ECCF01F0ECCFEF
:1047800002F0ECCF03F003C0ACF202C0ABF201C008
:10479000AAF200014CEC09F003C0A8F202C0A7F293
:1047A00001C0A6F200C0A5F2D4EC12F001C054F290
:1047B0000201800E0224556F55C25BF254C25AF2B8
:1047C000010E5C6F53C25DF200019CEC13F002011C
:1047D000402B6CD7000112001B6AF2BE1B8EF29EAA
:1047E0000201BF6B69C1BEF2C16B510EC06F000107
:1047F000AAEC06F01BBEF28E02C03FF201C03EF2F0
:10480000010E02013E27000E3F23140E3E25016ECD
:10481000000E3F21036E0150220F016E000E032295
:1048200001C03EF203C03FF203C05DF201C05CF282
:10483000010E606FFB0E5F6F0C0E5E6F080E616FF6
:104840000001EDEC0FF001C03DF202013D51000A04
:1048500000010DE0010A1CE0030A2CE0010A3DE022
:10486000070A4DE0010A5DE0030A6EE07DD0020117
:104870003F6B3E6B0001FAEC1FF03DC23BF2500E65
:10488000F66E0A0EF76E000EF86E01EC0CF074D0A6
:1048900002013F6B800E3E6F0001FAEC1FF03DC23B
:1048A0003BF25A0EF66E0A0EF76E000EF86E01EC31
:1048B0000CF062D0010E02013F6F800E3E6F0001CE
:1048C000FAEC1FF03DC23BF2640EF66E0A0EF76E74
:1048D000000EF86E01EC0CF04FD0010E02013F6F9C
:1048E0003E6B0001FAEC1FF03DC23BF26E0EF66E1D
:1048F0000A0EF76E000EF86E01EC0CF03DD0020EC1
:1049000002013F6F3E6B0001FAEC1FF03DC23BF22B
:10491000780EF66E0A0EF76E000EF86E01EC0CF0D3
:104920002BD0020E02013F6F800E3E6F0001FAECA9
:104930001FF03DC23BF2820EF66E0A0EF76E000EBD
:10494000F86E01EC0CF018D0030E02013F6F3E6BC5
:104950000001FAEC1FF08C0EF66E0A0EF76E000ED8
:10496000F86E01EC0CF008D0960EF66E0A0EF76E9B
:10497000000EF86E01EC0CF014EF49F002013E530A
:1049800038E13F51030835E1406B40513F0830E3C7
:1049900040513E25416F000E3F21426F010E446F92
:1049A000EE0E436F40514325016E000E4421036E0D
:1049B0000150E96E03C0EAFFEFCF43F2F250006E00
:1049C000F29E42C263FF41C262FF43C261FF7F9C0D
:1049D0007F9E7F840F01550E7E6EAA0E7E6E7F82B3
:1049E0007FB2FED77F940050F2120201402BCDD748
:1049F00034D0406B40517F0830E340513E25416F39
:104A0000000E3F21426F010E446F6E0E436F405106
:104A10004325016E000E4421036E0150E96E03C070
:104A2000EAFFEFCF43F2F250006EF29E42C263FF04
:104A300041C262FF43C261FF7F9C7F9E7F840F0162
:104A4000550E7E6EAA0E7E6E7F827FB2FED77F9459
:104A50000050F2120201402BCDD7000112001B6A58
:104A6000F2BE1B8EF29E0201BF6B69C1BEF2C16B2A
:104A7000510EC06F0001AAEC06F01BBEF28E02C000
:104A80003FF201C03EF2010E02013E27000E3F231D
:104A9000140E3E25016E000E3F21036E0150220FC1
:104AA000016E000E032201C03EF203C03FF203C0BC
:104AB0005DF201C05CF2010E606FFB0E5F6F0C0EC9
:104AC0005E6F080E616F0001EDEC0FF001C03DF26A
:104AD00002013D51000A00010DE0010A19E0030A3C
:104AE00026E0010A34E0070A41E0010A4EE0030A29
:104AF0005CE06AD002013F6B3E6B00013FDFA80E15
:104B0000F66E0A0EF76E000EF86E01EC0CF064D033
:104B100002013F6B800E3E6F000130DFB20EF66E79
:104B20000A0EF76E000EF86E01EC0CF055D0010E77
:104B300002013F6F800E3E6F000120DFBC0EF66E5B
:104B40000A0EF76E000EF86E01EC0CF045D0010E67
:104B500002013F6F3E6B000111DFC60EF66E0A0EBA
:104B6000F76E000EF86E01EC0CF036D0020E02016A
:104B70003F6F3E6B000102DFD00EF66E0A0EF76E3D
:104B8000000EF86E01EC0CF027D0020E02013F6F10
:104B9000800E3E6F0001F2DEDA0EF66E0A0EF76E40
:104BA000000EF86E01EC0CF017D0030E02013F6FFF
:104BB0003E6B0001E3DEE40EF66E0A0EF76E000EA9
:104BC000F86E01EC0CF008D0EE0EF66E0A0EF76EE1
:104BD000000EF86E01EC0CF014EF49F002013B51AD
:104BE000000A00010BE0010A17E0020A23E0010AB3
:104BF0002FE0060A3BE0010A47E054D0020EF66EB1
:104C00000B0EF76E000EF86E01EC0CF00A0E0400AD
:104C10009EA8FDD7AD6E4ED0080EF66E0B0EF76E49
:104C2000000EF86E01EC0CF00A0E04009EA8FDD7F1
:104C3000AD6E40D00E0EF66E0B0EF76E000EF86ED7
:104C400001EC0CF00A0E04009EA8FDD7AD6E32D028
:104C5000140EF66E0B0EF76E000EF86E01EC0CF0F3
:104C60000A0E04009EA8FDD7AD6E24D01C0EF66E71
:104C70000B0EF76E000EF86E01EC0CF00A0E04003D
:104C80009EA8FDD7AD6E16D0220EF66E0B0EF76EF7
:104C9000000EF86E01EC0CF00A0E04009EA8FDD781
:104CA000AD6E08D02A0EF66E0B0EF76E000EF86E83
:104CB00001EC0CF014EF49F0F00E986E8F96986EA0
:104CC0008F92000E966E8D9A120084A018D0020169
:104CD00030A102D08F9601D08F86F00E986E30B33F
:104CE00002D08F9201D08F82F00E986E30B502D034
:104CF0008D9A01D08D8A000E966E0AD00001F00EBA
:104D0000986E8F96986E8F92000E966E8D9A020115
:104D10000001120084A00AD084AA04D0310E016ED2
:104D200011D003D0300E016E0DD00CD0020130A195
:104D300006D0780E016E000105D004D002016F0E7E
:104D4000016E00011200020130950001BEDFE2DFBA
:104D50000150120084A00AD086A604D0300E016E45
:104D600011D003D0310E016E0DD00CD0020130A154
:104D700006D0780E016E000105D004D002016F0E3E
:104D8000016E000112000201309100019EDFE2DF9E
:104D90000150120002013085000197DFBBDF015096
:104DA000120002013081000190DFD4DF015034EFA6
:104DB00028F01B6AF2BE1B8EF29E0201BF6B69C116
:104DC000BEF2C16B510EC06F0001AAEC06F01BBE13
:104DD000F28E02C040F201C03FF2010E02013F27F5
:104DE000000E4023280E3F25016E000E4021036E69
:104DF0000150220F016E000E032201C03FF203C0DA
:104E000040F203C05DF201C05CF2010E606FFA0E69
:104E10005F6FA00E5E6F080E616F0001EDEC0FF08A
:104E200001C03DF21B6AF2BE1B8EF29E0201BF6BF7
:104E300069C1BEF2C16B510EC06F0001AAEC06F051
:104E40001BBEF28E02C040F201C03FF2010E020111
:104E50003F27000E4023140E3F25016E000E402117
:104E6000036E0150220F016E000E032201C03FF2BB
:104E700003C040F203C05DF201C05CF2010E606F3E
:104E8000FA0E5F6FB20E5E6F080E616F0001EDECFF
:104E90000FF001C03EF202013D2D78D03E51000AD4
:104EA000000115E0010A1DE0030A1FE0010A22E0EB
:104EB000070A2FE0010A31E0030A33E0010A33E078
:104EC0000F0A35E0010A37E0030A37E04CD0340E10
:104ED000F66E0B0EF76E000EF86E01EC0CF0D7D0EC
:104EE0004BD0000E966E8D9247D0E6DE000E966E89
:104EF0008D9042D002014B6B0001F6EC13F0010ED5
:104F000002014B6F0001F6EC13F0000E966E8D94CB
:104F100033D0000E966E8D962FD0000E966E8D9823
:104F20002BD011DF29D0000E966E8D9C25D0000E5F
:104F3000966E8D9E21D027DF1FD0000E966E8D922B
:104F4000966E8D98966E8D9A1EDFFDDEB5DE000E94
:104F5000966E8D90966E8D94966E8D96966E8D9CB7
:104F6000966E8D9E09D0480EF66E0B0EF76E000EF3
:104F7000F86E01EC0CF08BD05C0EF66E0B0EF76E3B
:104F8000000EF86E01EC0CF082D002013D53D8A463
:104F900075D03E51000A000115E0010A1CE0030A29
:104FA00020E0010A23E0070A28E0010A2AE0030AB8
:104FB0002CE0010A2CE00F0A2EE0010A30E0030A7F
:104FC00030E049D0660EF66E0B0EF76E000EF86EEE
:104FD00001EC0CF05CD0000E966E8D826AEC0BF04A
:104FE00043D0000E966E8D8070DE3ED0F00E986E2F
:104FF0008F86000E966E8D8437D0000E966E8D864D
:1050000033D0000E966E8D882FD0C4DE2DD0000ECA
:10501000966E8D8C29D0000E966E8D8E25D0C1D6C1
:1050200023D00F0E926E8988000E966E8D82966E3A
:105030008D88966E8D8A966E8D80ACDE46DE000E73
:10504000966E8D84966E8D86966E8D8C966E8D8EF8
:105050006AEC0BF009D07A0EF66E0B0EF76E000EAE
:10506000F86E01EC0CF013D08C0EF66E0B0EF76E92
:10507000000EF86E01EC0CF00AD00201960EF66EEE
:105080000B0EF76E000EF86E000101EC0CF014EF41
:1050900049F002016351016A625D03E262C200F0FD
:1050A0000CD0006A080E646F623700366351005CF2
:1050B000D8B0006E0136642FF7D700011200200E21
:1050C00002015DA9300E5E6F5CC200F05CAF08D0DB
:1050D000001E002A00C05CF22D0E5E6F5D8F5D81A8
:1050E00001505CC262F2640E636F0001D2DF00C047
:1050F0005CF2300E012402015F6F5CC262F20A0EA4
:10510000636F0001C6DF300E00240201616F300EB4
:105110000124606F5EC200F0300E5F5D04E05D83CD
:105120005DBF5D8512D05EC25FF2200E5E6F300EF5
:10513000605D04E05D815DBF5D8307D0D8A45D81C3
:1051400004E15FC260F2200E5F6F5DB505D05DB314
:1051500008D05DB10BD00FD05E5104009EA8FDD7E2
:10516000AD6E5F5104009EA8FDD7AD6E6051040086
:105170009EA8FDD7AD6E615104009EA8FDD7AD6E0F
:105180000001120002013D6B3E6B1B6AF2BE1B8EDA
:10519000F29EBF6B69C1BEF2C16B510EC06F0001C0
:1051A000AAEC06F01BBEF28E02C055F201C054F20A
:1051B000010E02015427000E5523140E5425016ED2
:1051C000000E5521036E0150220F016E000E0322C6
:1051D00001C054F203C055F203C05DF201C05CF29D
:1051E000010E606FFA0E5F6FB20E5E6F080E616F98
:1051F0000001EDEC0FF001C051F28CDD01C052F264
:10520000A9DD01C053F202015151000A00011AE068
:10521000010A28E0030A36E0010A44E0070A52E0E6
:10522000010A60E0030AD8B46DD0010AD8B477D07F
:105230000F0AD8B484D0010AD8B491D0030AD8B4E4
:105240009BD004D1000E80B8010E0201546F5C6F38
:10525000180E5D6F000133DF0A0E04009EA8FDD713
:10526000AD6EFCD0000E84B2010E0201546F5C6F73
:10527000180E5D6F000123DF0A0E04009EA8FDD703
:10528000AD6EECD0000E84B0010E0201546F5C6F65
:10529000180E5D6F000113DF0A0E04009EA8FDD7F3
:1052A000AD6EDCD0000E84B4010E0201546F5C6F51
:1052B000180E5D6F000103DF0A0E04009EA8FDD7E3
:1052C000AD6ECCD0000E84B6010E0201546F5C6F3F
:1052D000180E5D6F0001F3DE0A0E04009EA8FDD7D4
:1052E000AD6EBCD0000E84B8010E0201546F5C6F2D
:1052F000180E5D6F0001E3DE0A0E04009EA8FDD7C4
:10530000AD6EACD00201525104009EA8FDD7AD6E27
:105310000A0E04009EA8FDD7AD6E00019FD0000EBE
:1053200084BC010E0201546F5C6F180E5D6F0001AA
:10533000C6DE0A0E04009EA8FDD7AD6E8FD0000E0B
:1053400084BE010E0201546F5C6F180E5D6F000188
:10535000B6DE0A0E04009EA8FDD7AD6E7FD0020116
:10536000535104009EA8FDD7AD6E0A0E04009EA8FE
:10537000FDD7AD6E000172D0000E80B8010E0201A3
:10538000546F000E84B2010E556F000E84B8010EEA
:10539000566F000E84B0010E576F000E84B4010EDC
:1053A000586F000E84B6010E596F000E84BC010EBA
:1053B0005A6F000E84BE010E5B6F54C25CF2180E71
:1053C0005D6F00017CDE55C25CF2180E02015D6F5C
:1053D000000175DE56C25CF2180E02015D6F00011D
:1053E0006EDE0201525104009EA8FDD7AD6E57C279
:1053F0005CF2180E5D6F000162DE58C25CF2180E9E
:1054000002015D6F00015BDE59C25CF2180E020101
:105410005D6F000154DE5AC25CF2180E02015D6F2E
:1054200000014DDE5BC25CF2180E02015D6F0001EF
:1054300046DE0201535104009EA8FDD7AD6E0A0E50
:1054400004009EA8FDD7AD6E000108D0AA0EF66E2E
:105450000B0EF76E000EF86E01EC0CF014EF49F035
:1054600084A00AD086A204D0000E016E11D003D011
:10547000010E016E0DD00CD0020130A306D0020E39
:10548000016E000105D004D00201030E016E00017F
:10549000120002013083000118DCE2DF0150A7EFA7
:1054A0002AF002013093000110DCDADF0150A7EF8F
:1054B0002AF01B6AF2BE1B8EF29E0201BF6B69C10D
:1054C000BEF2C16B510EC06F0001AAEC06F01BBE0C
:1054D000F28E02C03FF201C03EF2010E02013E27F1
:1054E000000E3F23140E3E25016E000E3F21036E79
:1054F0000150220F016E000E032201C03EF203C0D4
:105500003FF203C05DF201C05CF2010E606FFA0E63
:105510005F6F8E0E5E6F080E616F0001EDEC0FF095
:1055200001C03DF202013D51000A000103E0010A01
:1055300003E004D0AED70BD0B4D709D0BE0EF66EC0
:105540000B0EF76E000EF86E01EC0CF008D0D20EC8
:10555000F66E0B0EF76E000EF86E01EC0CF014EF09
:1055600049F07EDF0150FC0F44E2040FFBEF2AF00C
:10557000DC0EF66E0B0EF76E000EF86E01EC0CF002
:105580000A0E04009EA8FDD7AD6E33D0E20EF66E73
:105590000B0EF76E000EF86E01EC0CF00A0E040014
:1055A0009EA8FDD7AD6E25D02A0E04009EA8FDD77B
:1055B000AD6EE80EF66E0B0EF76E000EF86E01EC97
:1055C0000CF00A0E04009EA8FDD7AD6E12D02A0E74
:1055D00004009EA8FDD7AD6EEE0EF66E0B0EF76EB4
:1055E000000EF86E01EC0CF00A0E04009EA8FDD728
:1055F000AD6E14EF49F0E824F76AF736170FF66E30
:10560000560EF722000EF86EFB6E0A00F550FA6E89
:105610000800F550F96E8C557055CE55A85502010D
:10562000466B465109082AE34651150DF350586B55
:10563000576F596F020EEA6E470EE96E575100011F
:1056400098EC03F00A000900F550EE6E0009FBE14A
:10565000020E0201706F470E6F6F45C272F244C2B4
:1056600071F20001B1EC0FF0015205E1020146C2F6
:1056700001F028D000010201462BD3D7020EEA6EBA
:105680004F0EE96E000E000135EC04F00A0009002F
:10569000F550EE6E0009FBE1020E0201706F4F0E35
:1056A0006F6F45C272F244C271F20001B1EC0FF0AB
:1056B000015205E1FE0E016E020104D00001FF0E51
:1056C000016E02010001120002014851040DF35065
:1056D000400F496F030E4A6FD8B04A2B4E6B4D6B8B
:1056E0004C6B4B6B020E506F4B0E4F6F516B515109
:1056F00003081CE351514F25E96E000E5021EA6E5C
:1057000051514925546F000E4A21556FF2CF56F280
:10571000F29E55C263FF54C262FF7F9C7F9E7F80D2
:10572000615056BFF28EEF6E512BE1D74BC200F0A5
:105730004CC201F04DC202F04EC203F00001C5EFB1
:105740002BF002015135006E0036FC0E0016C250DF
:10575000830B0010C26E000E016EC150F80B0110D9
:10576000C16E0400340E006E002EFED700D0C2823F
:10577000C2B2FED7C4CF03F0C3CF01F0C4CF02F052
:10578000000112003FC248F29FD703C043F202C09B
:1057900042F201C041F200C040F202013F51150D3A
:1057A000F350496B486F080E4825016E000E4921E1
:1057B000036E0150000198EC03F00201486F516F35
:1057C0000001BFDF02C0AAF201C0A9F231EC09F06A
:1057D00003C04BF202C04AF201C049F200C048F2D5
:1057E00003C0A8F202C0A7F201C0A6F200C0A5F251
:1057F00043C2ACF242C2ABF241C2AAF240C2A9F229
:105800004CEC09F003C047F202C046F201C045F279
:1058100000C044F244C200F045C201F046C202F0AA
:1058200047C203F012001B6AF2BE1B8EF29E0201F9
:10583000BF6B69C1BEF2C16B510EC06F0001AAEC13
:1058400006F01BBEF28E02C040F201C03FF2010E14
:1058500002013F27000E4023140E3F25016E000E6B
:105860004021036E0150220F016E000E032201C081
:105870003FF203C040F203C045F201C044F2000110
:10588000CEDE01C03DF202013D51FF0A000103E0FE
:10589000010A0AE035D0F40EF66E0B0EF76E000E1C
:1058A000F86E01EC0CF04CD002013E6B3E51080842
:1058B00024E33EC23FF2000165DF03C042F202C0B2
:1058C00041F201C040F200C03FF2890EE96E03C010
:1058D0005DF202C05CF201C05BF200C05AF2020E3F
:1058E00002015E6F00013BEC17F02C0E04009EA835
:1058F000FDD7AD6E02013E2BD9D7090E3D6F0001D9
:105900003DC23FF23FDF03C042F202C041F201C09C
:1059100040F200C03FF2890EE96E03C05DF202C0A2
:105920005CF201C05BF200C05AF2020E02015E6F2F
:1059300000013BEC17F00A0E04009EA8FDD7AD6EE7
:1059400014EF49F002014651150DF350516B506FA1
:10595000080E5025016E000E5121036E015000010A
:1059600098EC03F00201506F516F0001EADE02C0B3
:10597000AAF201C0A9F231EC09F045C2A1F244C279
:10598000A0F243C29FF242C29EF203C0A5F202C03F
:10599000A4F201C0A3F200C0A2F2BCEC10F003C05C
:1059A0004AF202C049F201C048F200C047F2020EBA
:1059B00002014C6F470E4B6F4651040DF350400FE0
:1059C0004D6F030E4E6FD8B04E2B4F6B4F510308E7
:1059D00028E34F514D25506F000E4E21516F4F510E
:1059E0004B25E96E000E4C21EA6EEFCF52F2F250D9
:1059F000006EF29E51C263FF50C262FF52C261FF4D
:105A00007F9C7F9E7F840F01550E7E6EAA0E7E6E58
:105A10007F827FB2FED77F940050F21202014F2B9B
:105A2000D5D70001E6EF2DF01B6AF2BE1B8EF29E69
:105A30000201BF6B69C1BEF2C16B510EC06F0001A4
:105A4000AAEC06F01BBEF28E02C043F201C042F285
:105A5000010E02014227000E4323140E4225016E5F
:105A6000000E4321036E0150220F016E000E03222F
:105A700001C042F203C043F203C045F201C044F248
:105A80000001CDDD01C03DF202013D510908D8A061
:105A9000B0D01B6AF2BE1B8EF29EBF6B69C1BEF214
:105AA000C16B510EC06F0001AAEC06F01BBEF28E56
:105AB00002C043F201C042F2010E02014227000E71
:105AC0004323280E4225016E000E4321036E015030
:105AD000220F016E000E032201C042F203C043F206
:105AE00003C04EF201C04DF2506B4F6B00016BECE6
:105AF00011F003C041F202C040F201C03FF200C009
:105B00003EF202013D51150DF350436B426F090EF9
:105B10004225016E000E4321036E0150000198ECF6
:105B200003F0006E0900F5CF01F00900F5CF02F097
:105B30000900F5CF03F003C0A8F202C0A7F201C02C
:105B4000A6F2E8CFA5F241C2ACF240C2ABF23FC22E
:105B5000AAF23EC2A9F297EC12F041E302013D51D4
:105B6000150DF350436B426F0D0E4225016E000E72
:105B70004321036E0150000198EC03F0006E090010
:105B8000F5CF01F00900F5CF02F00900F5CF03F0E1
:105B900041C2A8F240C2A7F23FC2A6F23EC2A5F29D
:105BA00003C0ACF202C0ABF201C0AAF2E8CFA9F286
:105BB00097EC12F014E341C245F240C244F23FC2F6
:105BC00043F23EC242F23DC246F2BCD6060EF66E2B
:105BD0000C0EF76E000EF86E01EC0CF008D0100EF3
:105BE000F66E0C0EF76E000EF86E01EC0CF00AD09B
:105BF00002011E0EF66E0C0EF76E000EF86E00011E
:105C000001EC0CF014EF49F0C69A000EC76E220E9C
:105C1000C66E920E946E946E946E74EF38F0000E11
:105C2000956E8C9204001A0E006E002EFED7C9509D
:105C3000060EC96EC730FEE304001A0E006E002E79
:105C4000FED7000E956E8C820400020E0201556F85
:105C5000F90E5F6F00018AEC13F00201552FF8D79F
:105C6000000179EF38F0000E956E8C9204001A0E48
:105C7000006E002EFED7C950160EC96EC730FEE367
:105C800004001A0E006E002EFED7000E956E8C8258
:105C90000400020E0201556FF90E5F6F00018AECDD
:105CA00013F00201552FF8D7000181EF38F0000EF4
:105CB000956E8C9204001A0E006E002EFED7400ED8
:105CC00002015625576FC95057C2C9FFC730FEE3BE
:105CD000C950C96AC730FEE3C95055C2C9FFC730B1
:105CE000FEE304001A0E006E002EFED7000E956E25
:105CF0008C820400020E576FF90E5F6F00018AEC70
:105D000013F00201572FF8D700011200000E956E14
:105D10008C9204001A0E006E002EFED7200E020197
:105D20005525576FC95057C2C9FFC730FEE3C95048
:105D3000C96AC730FEE3C950C968C730FEE3C9CF9E
:105D400056F204001A0E006E002EFED7000E956E5D
:105D50008C820400020E576FF90E5F6F00018AEC0F
:105D600013F00201572FF8D756C201F000011200BC
:105D7000000E956E8C9204001A0E006E002EFED757
:105D8000C950120EC96EC730FEE3C950C968C7308A
:105D9000FEE3C9CF57F202015751800B586F579F4E
:105DA000C950C968C730FEE3C9CF56F2C950C968A7
:105DB000C730FEE3C9CF55F204001A0E006E002E64
:105DC000FED7000E956E8C820400020E596FF90EFC
:105DD0005F6F00018AEC13F00201592FF8D755C20A
:105DE00000F056C201F057C202F058C203F00001A1
:105DF000F8EF38F0B60E006E036A026A016A02011B
:105E0000555156115711581102E1006A0DD0D89022
:105E100001BE09D055375637573758370336023643
:105E20000136002EF4D7019E000112000201A49158
:105E300098C29DF297C29CF296C29BF295C29AF2CA
:105E400098C2A8F297C2A7F296C2A6F295C2A5F28E
:105E5000AC6BAB6BAA6BA96B000197EC12F006E37D
:105E60000201A4819B51800A9B6F00019DC2A8F290
:105E70009CC2A7F29BC2A6F29AC2A5F20201AC6B29
:105E8000AB6BAA6B8E0EA96F000197EC12F001E2CA
:105E900019E19DC2A8F29CC2A7F29BC2A6F29AC2C7
:105EA000A5F2D4EC12F002C0AAF201C0A9F231ECC2
:105EB00009F003C0A1F202C0A0F201C09FF200C02D
:105EC0009EF2D3D09DC2A8F29CC2A7F29BC2A6F2BA
:105ED0009AC2A5F2800E0201AC6F960EAB6F180E3F
